:100000000C9462000C948A000C948A000C948A0070
:100010000C948A000C948A000C948A000C948A0038
:100020000C948A000C948A000C948A000C948A0028
:100030000C948A000C948A000C948A000C948A0018
:100040000C94AE010C948A000C94CA030C94FB032C
:100050000C948A000C948A000C948A000C948A00F8
:100060000C948A000C948A000000000024002700F1
:100070002A0000000000250028002B0000000000DE
:1000800023002600290004040404040404040202DA
:100090000202020203030303030301020408102007
:1000A0004080010204081020010204081020000012
:1000B0000007000201000003040600000000000029
:1000C0000000C00411241FBECFEFD8E0DEBFCDBFBB
:1000D00011E0A0E0B1E0ECE9FBE002C005900D9278
:1000E000AA38B107D9F712E0AAE8B1E001C01D9221
:1000F000AA33B107E1F710E0C4ECD0E004C02297C6
:10010000FE010E94C805C23CD107C9F70E94FD0448
:100110000C947A050C9400009C018230910599F0B2
:100120008330910524F48130910519F507C084309E
:10013000910571F088309105E1F413C08BE192E0F4
:1001400060E071E009C08BE192E065E171E00DC013
:100150008BE192E06AE271E00E94670520E030E006
:1001600008C08BE192E062E471E00E94670521E043
:1001700030E0C90108959C018430910579F0853003
:1001800091052CF401978230910550F404C0883019
:10019000910531F403C020E030E002C021E030E0FE
:1001A000C90108958BE192E040E855E260E070E01B
:1001B0000E9442048091700161E00E94B50280912A
:1001C000720161E00E94B5028091740161E00E94B9
:1001D000B5028091760161E00E94B50280917801BC
:1001E00061E00E94B50208958F929F92AF92BF92F4
:1001F000CF92DF92EF92FF920F931F93CF93DF93F3
:1002000034E0E32EF12CC1E0D0E028ECA22EB12C9A
:1002100090E4892E96E0992E8091700160E00E9412
:10022000D90200917401CE010E948C00682F802FAA
:100230000E94D902CE010E94BB00682F80917601F6
:100240000E94D9028091780161E00E94D902CA9D82
:100250006001CB9DD00CDA9DD00C112400E010E0A1
:100260008091720160E00E94D9028091720161E088
:100270000E94D902C401BE010E949105CB010E94D7
:1002800043020F5F1F4F0C151D0554F3CC0FDD1FEC
:1002900064EF71E080E090E00E941C020894E108A5
:1002A000F108E114F10409F0B7CF8091780160E022
:1002B0000E94D9028BE192E069E571E00E94470556
:1002C00068EE73E080E090E00E941C028BE192E017
:1002D00064E671E00E94470568EE73E080E090E01C
:1002E0000E941C028BE192E064E671E00E944705E7
:1002F00068EE73E080E090E00E941C028BE192E0E7
:1003000064E671E00E94470568EE73E080E090E0EB
:100310000E941C028BE192E066E671E00E94670594
:100320008091780161E00E94D9028BE192E067E65A
:1003300071E00E94670568EE73E080E090E00E9443
:100340001C02DF91CF911F910F91FF90EF90DF90F2
:10035000CF90BF90AF909F908F9008951F920F9273
:100360000FB60F9211242F933F938F939F93AF93C8
:10037000BF9380918E0190918F01A0919001B091D7
:100380009101309192010196A11DB11D232F2D5F86
:100390002D3720F02D570196A11DB11D20939201FC
:1003A00080938E0190938F01A0939001B09391015F
:1003B00080918A0190918B01A0918C01B0918D0167
:1003C0000196A11DB11D80938A0190938B01A0938A
:1003D0008C01B0938D01BF91AF919F918F913F910F
:1003E0002F910F900FBE0F901F9018959FB7F89404
:1003F00020918A0130918B0140918C0150918D01A7
:1004000086B5A89B06C08F3F21F02F5F3F4F4F4F0F
:100410005F4F9FBF542F432F322F2227280F311DAC
:10042000411D511D82E0220F331F441F551F8A9525
:10043000D1F7B901CA010895EF92FF920F931F936C
:10044000CF93DF937B018C010E94F601EB010FC07B
:100450000E94F6016C1B7D0B83E0683E780738F044
:100460000894E108F10801091109C851DC4FE114B1
:10047000F1040105110561F7DF91CF911F910F91F3
:10048000FF90EF900895019739F0880F991F880F1A
:10049000991F02970197F1F70895789484B58260C7
:1004A00084BD84B5816084BD85B5826085BD85B518
:1004B000816085BDEEE6F0E0808181608083E1E8C7
:1004C000F0E01082808182608083808181608083FF
:1004D000E0E8F0E0808181608083E1EBF0E0808102
:1004E00084608083E0EBF0E0808181608083EAE7D4
:1004F000F0E080818460808380818260808380815D
:10050000816080838081806880831092C10008951B
:10051000833071F0843028F48130A1F0823021F5ED
:1005200014C08630B1F08730D1F08430E9F404C0D3
:10053000809180008F7703C0809180008F7D8093B1
:100540008000089584B58F7702C084B58F7D84BD07
:1005500008958091B0008F778093B00008958091C6
:10056000B0008F7D8093B000089590E0FC01E656C6
:10057000FF4F2491FC01EA57FF4FE491EE23C1F0B5
:10058000F0E0EE0FFF1FE859FF4F85919491DC01D9
:10059000662341F49FB7F8948C91209582238C9325
:1005A0009FBF08959FB7F8948C91822B8C939FBF27
:1005B00008950F931F93DF93CF930F92CDB7DEB7BC
:1005C000282F30E0F901E255FF4F8491F901E656FA
:1005D000FF4F14912A573F4FF90104910023D9F09E
:1005E000882321F069830E9488026981E02FF0E06E
:1005F000EE0FFF1FEE58FF4F85919491DC019FB7DE
:10060000F894662321F48C911095812302C08C917B
:10061000812B8C939FBF0F90CF91DF911F910F91F2
:100620000895FC0184859585FC01E05CFF4F2081E5
:1006300031818E5B9F4FFC0180819181281B390B9A
:100640002F733070C9010895FC0184859585FC01E4
:10065000E05CFF4F40815181FC01EE5BFF4F208148
:1006600031814217530741F00190F081E02DE80FEE
:10067000F91F208130E002C02FEF3FEFC90108953C
:10068000FC0184859585FC01E05CFF4F4081518130
:10069000FC01EE5BFF4F208131814217530771F05F
:1006A000A081B181A80FB91F2C9180819181019601
:1006B0008F7390709183808330E002C02FEF3FEF03
:1006C000C9010895DC011E968D919C911F97FC0134
:1006D000E05CFF4F8E5B9F4F40815181DC012D918B
:1006E0003C91119742175307B9F708951F93FC01E6
:1006F000162F26853785D901A05CBF4F8D919C911F
:10070000019660E470E00E949105D901AE5BBF4F95
:100710004D915C91119784179507D1F3D901A05C95
:10072000BF4F0D90BC91A02DA20FB31F1C93A685A7
:10073000B785A05CBF4F11969C938E93A689B7890D
:100740002C9181E090E0058C02C0880F991F0A94DB
:10075000E2F7282B2C9381E090E01F910895FB0194
:10076000E05CFF4F208131812F5F3F4F2F7330704E
:10077000DB01AE5BBF4F4D915C911197241735079C
:1007800039F0A081B181A60FB71F8C9331832083EC
:10079000089508951F920F920FB60F9211242F9370
:1007A0003F934F935F936F937F938F939F93AF93F9
:1007B000BF93EF93FF938091C60063E971E00E94BD
:1007C000AF03FF91EF91BF91AF919F918F917F9177
:1007D0006F915F914F913F912F910F900FBE0F90AE
:1007E0001F9018958BE192E00E941103009711F081
:1007F0000E94C90308951F920F920FB60F92112401
:100800002F933F935F936F937F938F939F93AF93B8
:10081000BF93EF93FF9320911702309118028091BC
:10082000190290911A022817390731F48091C100FA
:100830008F7D8093C10016C0E0911902F0911A02D9
:10084000E952FE4F20818091190290911A0201967F
:1008500060E470E00E94910590931A02809319025F
:100860002093C600FF91EF91BF91AF919F918F911F
:100870007F916F915F913F912F910F900FBE0F90DD
:100880001F901895DF92EF92FF920F931F93CF93D3
:10089000DF93EC017A018B01DD24D394403081EEAB
:1008A000580780E0680780E0780749F4DD24EC8988
:1008B000FD89108260E874E88EE190E00FC0EC8959
:1008C000FD8981E090E00E8C02C0880F991F0A9488
:1008D000E2F7808360E079E08DE390E0A801970182
:1008E0000E94A40521503040404050405695479505
:1008F0003795279580E12030380710F0DD20B1F6DC
:10090000E889F9893083EA89FB892083EE89FF89A8
:10091000408181E090E09C010A8C02C0220F331FCD
:100920000A94E2F7422B4083EE89FF8940819C01C3
:100930000B8C02C0220F331F0A94E2F7422B408334
:10094000EE89FF8940819C010C8C02C0220F331F6D
:100950000A94E2F7422B4083EE89FF8920810D8CB7
:1009600002C0880F991F0A94E2F780958223808342
:10097000DF91CF911F910F91FF90EF90DF9008953D
:1009800010921E0210921D0288EE93E0A0E0B0E0EB
:1009900080931F0290932002A0932102B093220221
:1009A000EDE1F2E08EE791E09293829383E991E0AA
:1009B0009587848787ED91E09787868785EC90E01F
:1009C000918B808B84EC90E0938B828B80EC90E019
:1009D000958B848B81EC90E0978B868B86EC90E0F6
:1009E000918F808F84E0828F83E0838F87E0848F74
:1009F00085E0858F81E0868F0895CF93DF930E94F5
:100A00004D020E94D200C2EFD3E00E94F400209772
:100A1000E1F30E94F203F9CFCF92DF92EF92FF92BF
:100A20000F931F93CF93DF936C017B018A01C0E08A
:100A3000D0E00FC0D7016D917D01D601ED91FC9101
:100A40000190F081E02DC6010995C80FD91F015012
:100A500010400115110571F7CE01DF91CF911F9163
:100A60000F91FF90EF90DF90CF900895DB010D90F4
:100A70000020E9F7AD0141505040461B570BDC0107
:100A8000ED91FC910280F381E02D099508950E947B
:100A900036050895DC01ED91FC910190F081E02D87
:100AA000099508950F931F93CF93DF93EC016DE0A9
:100AB0000E944A058C01CE016AE00E944A05080F97
:100AC000191FC801DF91CF911F910F9108950F93C6
:100AD0001F93CF93DF93EC010E9436058C01CE016A
:100AE0000E945205080F191FC801DF91CF911F9175
:100AF0000F910895F8940C94CC05AA1BBB1B51E1EF
:100B000007C0AA1FBB1FA617B70710F0A61BB70B7D
:100B1000881F991F5A95A9F780959095BC01CD0122
:100B2000089597FB092E07260AD077FD04D0E5DF4C
:100B300006D000201AF4709561957F4F0895F6F75E
:100B4000909581959F4F0895A1E21A2EAA1BBB1B79
:100B5000FD010DC0AA1FBB1FEE1FFF1FA217B30789
:100B6000E407F50720F0A21BB30BE40BF50B661F9F
:100B7000771F881F991F1A9469F760957095809563
:100B800090959B01AC01BD01CF010895EE0FFF1FB1
:0C0B90000590F491E02D0994F894FFCF3B
:100B9C0053746570204D6F64652069732046756CC5
:100BAC006C2E2E2E0053746570204D6F6465206979
:100BBC00732048616C662E2E2E0053746570204D88
:100BCC006F646520697320517561727465722E2E85
:100BDC002E0053746570204D6F6465206973204539
:100BEC0069676874682E2E2E00534C454550494E4B
:100BFC00472E2E007A00004157414B452121210000
:100C0C0003000200040005000C0000000000760345
:0A0C1C000C051103400324036203DA
:00000001FF
