:100000000C94AC000C94D4000C94D4000C94820892
:100010000C94A6080C94CA080C94D4000C94D40038
:100020000C94D4000C94D4000C94D4000C94D40000
:100030000C94D4000C94D4000C94D4000C94D400F0
:100040000C94A3020C94D4000C94B5040C94E60414
:100050000C94D4000C94D4000C94D4000C94D400D0
:100060000C94D4000C94D40000000000240027005D
:100070002A0000000000250028002B0000000000DE
:1000800023002600290004040404040404040202DA
:100090000202020203030303030301020408102007
:1000A0004080010204081020010204081020000012
:1000B0000007000201000003040600000000000029
:1000C000000000C201000100110011000C0000E15D
:1000D00000000A00250025002100009600001900FC
:1000E000390039003600127A00001F004600460031
:1000F00044008070000022004D004D004A00004B7B
:1001000000003600750075007200403800004A009B
:100110009C009C009900802500007200EC00EC001F
:10012000E900C0120000E900DA01DA01D701600934
:100130000000D701B603B603B303B0040000B30355
:100140006E076E076B072C010000DC0EC11DC11D80
:10015000BE1D9902AB059E0211241FBECFEFD8E051
:10016000DEBFCDBF11E0A0E0B1E0EEE5F5E102C0F9
:1001700005900D92A83FB107D9F713E0A8EFB1E0C1
:1001800001C01D92A830B107E1F711E0C6E5D1E04A
:1001900004C02297FE010E949E0AC235D107C9F70A
:1001A0000E94E8050C94470A0C94000081309105E8
:1001B00041F488EF91E06AE04BE020E00E943C09C6
:1001C0000895009721F488EF91E00E943F0A089576
:1001D000CF93DF93C5EAD2E0CE0140E855E260E07C
:1001E00070E00E942D0588EF91E040E855E260E064
:1001F00070E00E946909CE0160E071E00E94520641
:1002000083E061E00E94A00382E061E00E94A0031D
:1002100087E061E00E94A00386E061E00E94A00305
:1002200084E061E00E94A00385E061E00E94A003F9
:1002300088E061E00E94A00389E061E00E94A003E1
:1002400084E060E00E94C40385E060E00E94C40393
:1002500088E060E00E94C40389E060E00E94C4037B
:10026000DF91CF910895EF92FF920F931F93CF9359
:10027000DF937C0106EC11E0C0E0D0E00AC0F80199
:10028000619171918F01C7010E944A0A21960097DE
:1002900049F08091D6019091D701C817D9077CF316
:1002A000C0E0D0E0CE01DF91CF911F910F91FF9080
:1002B000EF9008950F931F93CF93DF938C0197FFD7
:1002C00004C000271127081B190B61E01816190636
:1002D0000CF060E083E00E94C403C0E0D0E015C0F1
:1002E00082E061E00E94C40363E070E080E090E09F
:1002F0000E94110382E060E00E94C40363E070E0AA
:1003000080E090E00E9411032196C017D10744F3CA
:10031000DF91CF911F910F91089580E293E040E02B
:1003200050E060E470E40E945A0168EE73E080E0FF
:1003300090E00E94110380EE9CEF40E050E060E40A
:1003400070E40E945A016AE070E080E090E00E9450
:1003500011030895AF92BF92CF92DF92EF92FF9276
:100360000F931F93DF93CF93CDB7DEB760970FB690
:10037000F894DEBF0FBECDBF88EF91E00E941B074F
:10038000823009F0C5C000E010E0CC24DD2467E035
:10039000E62EF12CEC0EFD1E5E010894A11CB11C92
:1003A00088EF91E00E941B07402F0A3020F4F701EC
:1003B000E00FF11F80838D3009F4AAC08A3009F460
:1003C000A7C0833009F4A4C0823009F4A1C0982FDB
:1003D00090539A3028F09151963018F4875301C009
:1003E000892F00FF10C09801359527959C2D929577
:1003F000907F982BF501E20FF31F90832530310594
:1004000019F0D92601C0C82E4F5F0F5F1F4F0C3067
:10041000110531F64C3009F07BC0198A85EA92E06B
:100420006FE271E00E9432068E010F5F1F4F96E06F
:10043000E92EF12CEC0EFD1EF801A1908F01FA2D92
:10044000F03130F485EA92E06AE371E00E9432060E
:1004500085EA92E06A2D40E150E00E94CE060E153A
:100460001F0551F785EA92E00E943D0685EA92E079
:100470006CE371E00E9432060E8185EA92E0602F03
:1004800040E150E00E94CE060D1519F468E171E0DC
:1004900002C064E271E085EA92E00E945206CE0159
:1004A00007960E9433018C01181619060CF585EA8F
:1004B00092E067E471E00E94320685EA92E0B801BA
:1004C0004AE050E00E94110785EA92E06AE571E097
:1004D0000E943206F801EE0FFF1FE453FE4F6081C9
:1004E000718185EA92E00E9452060E948D010CC043
:1004F00085EA92E06BE671E00E94520668EE73E0D6
:1005000080E090E00E94110385EA92E00E943D069F
:1005100060960FB6F894DEBF0FBECDBFCF91DF91CE
:100520001F910F91FF90EF90DF90CF90BF90AF9011
:10053000089581E090E00E94D600089580E090E068
:100540000E94D60008951F920F920FB60F921124A9
:100550002F933F938F939F93AF93BF9380911802F4
:1005600090911902A0911A02B0911B0230911C02C5
:100570000196A11DB11D232F2D5F2D3720F02D5782
:100580000196A11DB11D20931C0280931802909327
:100590001902A0931A02B0931B0280911402909149
:1005A0001502A0911602B09117020196A11DB11D6E
:1005B0008093140290931502A0931602B093170231
:1005C000BF91AF919F918F913F912F910F900FBE4F
:1005D0000F901F9018959FB7F894209114023091B6
:1005E0001502409116025091170286B5A89B06C0CD
:1005F0008F3F21F02F5F3F4F4F4F5F4F9FBF542FD3
:10060000432F322F2227280F311D411D511D82E01B
:10061000220F331F441F551F8A95D1F7B901CA0114
:100620000895EF92FF920F931F93CF93DF937B0177
:100630008C010E94EB02EB010FC00E94EB026C1BCD
:100640007D0B83E0683E780738F00894E108F108F4
:1006500001091109C851DC4FE114F104010511052C
:1006600061F7DF91CF911F910F91FF90EF90089567
:10067000789484B5826084BD84B5816084BD85B57D
:10068000826085BD85B5816085BDEEE6F0E0808144
:1006900081608083E1E8F0E0108280818260808365
:1006A000808181608083E0E8F0E0808181608083E8
:1006B000E1EBF0E0808184608083E0EBF0E080811A
:1006C00081608083EAE7F0E08081846080838081BC
:1006D0008260808380818160808380818068808364
:1006E0001092C1000895833071F0843028F4813075
:1006F000A1F0823021F514C08630B1F08730D1F0FE
:100700008430E9F404C0809180008F7703C0809129
:1007100080008F7D80938000089584B58F7702C01C
:1007200084B58F7D84BD08958091B0008F778093CC
:10073000B00008958091B0008F7D8093B00008953F
:1007400090E0FC01E656FF4F2491FC01EA57FF4F71
:10075000E491EE23C1F0F0E0EE0FFF1FE859FF4FE8
:1007600085919491DC01662341F49FB7F8948C91B4
:10077000209582238C939FBF08959FB7F8948C9106
:10078000822B8C939FBF08950F931F93DF93CF937A
:100790000F92CDB7DEB7282F30E0F901E255FF4FB9
:1007A0008491F901E656FF4F14912A573F4FF90102
:1007B00004910023D9F0882321F069830E947303F8
:1007C0006981E02FF0E0EE0FFF1FEE58FF4F85919B
:1007D0009491DC019FB7F894662321F48C911095D5
:1007E000812302C08C91812B8C939FBF0F90CF915E
:1007F000DF911F910F910895FC0184859585FC017F
:10080000E05CFF4F208131818E5B9F4FFC01808136
:100810009181281B390B2F733070C9010895FC0199
:1008200084859585FC01E05CFF4F40815181FC018E
:10083000EE5BFF4F208131814217530741F0019059
:10084000F081E02DE80FF91F208130E002C02FEF8A
:100850003FEFC9010895FC0184859585FC01E05CAA
:10086000FF4F40815181FC01EE5BFF4F20813181C0
:100870004217530771F0A081B181A80FB91F2C91C5
:100880008081918101968F7390709183808330E095
:1008900002C02FEF3FEFC9010895DC011E968D9134
:1008A0009C911F97FC01E05CFF4F8E5B9F4F408146
:1008B0005181DC012D913C91119742175307B9F7F3
:1008C00008951F93FC01162F26853785D901A05C5A
:1008D000BF4F8D919C91019660E470E00E94670A81
:1008E000D901AE5BBF4F4D915C911197841795076D
:1008F000D1F3D901A05CBF4F0D90BC91A02DA20FE8
:10090000B31F1C93A685B785A05CBF4F11969C931F
:100910008E93A689B7892C9181E090E0058C02C066
:10092000880F991F0A94E2F7282B2C9381E090E01E
:100930001F910895FB01E05CFF4F208131812F5F03
:100940003F4F2F733070DB01AE5BBF4F4D915C9119
:1009500011972417350739F0A081B181A60FB71F71
:100960008C9331832083089508951F920F920FB6C0
:100970000F9211242F933F934F935F936F937F9325
:100980008F939F93AF93BF93EF93FF938091C60094
:100990006DE172E00E949A04FF91EF91BF91AF91D7
:1009A0009F918F917F916F915F914F913F912F9187
:1009B0000F900FBE0F901F90189585EA92E00E944D
:1009C000FC03009711F00E94B40408951F920F9247
:1009D0000FB60F9211242F933F935F936F937F93E2
:1009E0008F939F93AF93BF93EF93FF932091A102B7
:1009F0003091A2028091A3029091A4022817390796
:100A000031F48091C1008F7D8093C10016C0E091C8
:100A1000A302F091A402EF59FD4F20818091A3021F
:100A20009091A402019660E470E00E94670A90939E
:100A3000A4028093A3022093C600FF91EF91BF917F
:100A4000AF919F918F917F916F915F913F912F9186
:100A50000F900FBE0F901F901895DF92EF92FF92AC
:100A60000F931F93CF93DF93EC017A018B01DD2469
:100A7000D394403081EE580780E0680780E0780723
:100A800049F4DD24EC89FD89108260E874E88EE188
:100A900090E00FC0EC89FD8981E090E00E8C02C0EF
:100AA000880F991F0A94E2F7808360E079E08DE374
:100AB00090E0A80197010E947A0A215030404040FE
:100AC0005040569547953795279580E12030380757
:100AD00010F0DD20B1F6E889F9893083EA89FB89D5
:100AE0002083EE89FF89408181E090E09C010A8C9F
:100AF00002C0220F331F0A94E2F7422B4083EE8993
:100B0000FF8940819C010B8C02C0220F331F0A9485
:100B1000E2F7422B4083EE89FF8940819C010C8CD7
:100B200002C0220F331F0A94E2F7422B4083EE8962
:100B3000FF8920810D8C02C0880F991F0A94E2F76B
:100B4000809582238083DF91CF911F910F91FF9039
:100B5000EF90DF9008951092A8021092A70288EEFD
:100B600093E0A0E0B0E08093A9029093AA02A09342
:100B7000AB02B093AC02E7EAF2E08CED91E0929325
:100B800082938DE192E09587848781E692E0978752
:100B9000868785EC90E0918B808B84EC90E0938B42
:100BA000828B80EC90E0958B848B81EC90E0978B2E
:100BB000868B86EC90E0918F808F84E0828F83E03B
:100BC000838F87E0848F85E0858F81E0868F08950D
:100BD000CF93DF930E9438030E94E800CDEDD4E06C
:100BE0000E94AA012097E1F30E94DD04F9CFCF9281
:100BF000DF92EF92FF920F931F93CF93DF936C01DD
:100C00007B018A01C0E0D0E00FC0D7016D917D016A
:100C1000D601ED91FC910190F081E02DC60109957E
:100C2000C80FD91F015010400115110571F7CE01F1
:100C3000DF91CF911F910F91FF90EF90DF90CF90B8
:100C40000895DB010D900020E9F7AD0141505040BF
:100C5000461B570BDC01ED91FC910280F381E02DE6
:100C6000099508950E9421060895DC01ED91FC91FB
:100C70000190F081E02D099508950F931F93CF9374
:100C8000DF93EC016DE00E9435068C01CE016AE035
:100C90000E943506080F191FC801DF91CF911F91DF
:100CA0000F9108950F931F93CF93DF93EC010E9450
:100CB00021068C01CE010E943D06080F191FC801B4
:100CC000DF91CF911F910F9108958F929F92AF92D4
:100CD000BF92CF92DF92EF92FF920F931F93DF9319
:100CE000CF93CDB7DEB7A1970FB6F894DEBF0FBE96
:100CF000CDBF6C01042FE52FCB01122F19A222309A
:100D000008F41AE021E2E22EF12CEC0EFD1E812EF9
:100D10009924AA24BB2403C0022FE32FCA01602F09
:100D20007E2FA50194010E947A0A129F802D112422
:100D3000081B0894E108F1080A3014F4005D01C0B2
:100D4000095CF7010083211531054105510521F7A3
:100D5000C601B7010E942106A1960FB6F894DEBF26
:100D60000FBECDBFCF91DF911F910F91FF90EF90FC
:100D7000DF90CF90BF90AF909F908F9008952115F6
:100D8000310549F4DC01ED91FC910190F081E02DF9
:100D9000642F099508950E94650608959A01462FCB
:100DA00050E060E070E00E94BF060895CF92DF92AD
:100DB000EF92FF920F931F93CF93DF93EC017A0191
:100DC0008B012115310541F4E881F9810190F08111
:100DD000E02D642F09951AC02A303105A9F477FF58
:100DE00012C06DE20E9435066C0144275527BA01F6
:100DF0004E195F09600B710BCE012AE00E94650657
:100E0000C80ED91E04C02AE00E9465066C01C60106
:100E1000DF91CF911F910F91FF90EF90DF90CF90D6
:100E200008959A01FB01AF01662757FD6095762F63
:100E30000E94D60608952091C4023091C502281759
:100E40003907B1F49091070380910603981781F058
:100E5000E0910703F0E0EA53FD4F20818091070302
:100E600090E001968F7390708093070330E002C08A
:100E70002FEF3FEFC90108952091C4023091C502C0
:100E80002817390779F4809106032091070390E031
:100E9000805C9F4F821B910960E470E00E94670AAA
:100EA0009C0102C020E030E0C90108952091C402F5
:100EB0003091C5022817390749F48FB7F89410927A
:100EC000060390910603909307038FBF0895209126
:100ED000C4023091C5022817390781F490910703A5
:100EE00080910603981751F0E0910703F0E0EA5370
:100EF000FD4F2081332727FD309502C02FEF3FEFB4
:100F0000C901089520E001972FEF8F3F9207D9F78D
:100F10000895FC018091C4029091C5028E179F072D
:100F200091F0838D8E7F838F8FB7F8941092060394
:100F30009091060390930703F093C502E093C402D7
:100F40008FBF81E0089580E00895EF92FF920F93A4
:100F50001F93CF93DF93EC018B8DEE85FF859D85ED
:100F600081FF04C08081892329F445C080818923C1
:100F700009F041C08B899C890E94820708E010E03B
:100F8000EE24E394FF248D899E890E948207EE85DA
:100F9000FF8580819D85892311F0FE2803C08E2D59
:100FA0008095F822EE0C0150104069F78F89988DDA
:100FB0000E9482078B8D81FDF09480910603209121
:100FC000070390E001968F73907030E082179307CB
:100FD00079F0E0910603F0E0EA53FD4FF082809152
:100FE000060390E001968F7390708093060303C010
:100FF0008B8D81608B8FDF91CF911F910F91FF902F
:10100000EF900895FC01A189B2899089662329F4A3
:101010002C91892F8095822302C08C91892B8C93EF
:101020000895DF92EF92FF920F931F93CF93DF9378
:10103000EC01E62E898D9A8D009739F481E090E0DD
:101040009B838A8320E030E04BC0DFB6F8948B8D21
:1010500061E081FF60E0CE010E940208898D9A8DD7
:1010600005960E9482078B8D81FF19C008E010E071
:10107000FF24F3948F2D8E2119F0CE0160E002C081
:10108000CE0161E00E940208898D9A8D0E9482073C
:10109000FF0C0150104071F7CE0160E018C008E06D
:1010A00010E0FF24F3948F2D8E2119F0CE0161E022
:1010B00002C0CE0160E00E940208898D9A8D0E94D4
:1010C0008207FF0C0150104071F7CE0161E00E94D1
:1010D0000208DFBE898D9A8D0E94820721E030E0F0
:1010E000C901DF91CF911F910F91FF90EF90DF9099
:1010F00008958091C4029091C502009711F00E945A
:10110000A50708951F920F920FB60F9211242F93E7
:101110003F934F935F936F937F938F939F93AF937F
:10112000BF93EF93FF930E947908FF91EF91BF91D6
:10113000AF919F918F917F916F915F914F913F916F
:101140002F910F900FBE0F901F9018951F920F9226
:101150000FB60F9211242F933F934F935F936F938A
:101160007F938F939F93AF93BF93EF93FF930E94CF
:101170007908FF91EF91BF91AF919F918F917F91EE
:101180006F915F914F913F912F910F900FBE0F90F4
:101190001F9018951F920F920FB60F9211242F9344
:1011A0003F934F935F936F937F938F939F93AF93EF
:1011B000BF93EF93FF930E947908FF91EF91BF9146
:1011C000AF919F918F917F916F915F914F913F91DF
:1011D0002F910F900FBE0F901F9018951F93CF93D4
:1011E000DF93EC01162F862F61E00E94A003812F70
:1011F00061E00E94C403812F90E0FC01E656FF4F9E
:10120000E491E88BFC01EA57FF4FE491F0E0EE0F28
:10121000FF1FEE58FF4F85919491898B9A8BDF9138
:10122000CF911F9108951F93CF93DF93EC01162F59
:10123000862F60E00E94A0038B8D81FD04C0812F6A
:1012400061E00E94C4031C87812F90E0FC01E656F8
:10125000FF4FE491ED87FC01EA57FF4FE491F0E086
:10126000EE0FFF1FE458FF4F859194918E879F8763
:10127000DF91CF911F9108951F93CF93DF93EC01DE
:10128000162F1B821A8288EE93E0A0E0B0E08C83D8
:101290009D83AE83BF838CEE91E0998388831C8A03
:1012A0001B8A1E8A1D8A188E1F8A1A8E198E8B8D94
:1012B0002170220F8C7F822B8B8FCE01642F0E9496
:1012C000EE08CE01612F0E941309DF91CF911F918B
:1012D0000895EF92FF920F931F93CF93DF93EC014A
:1012E0007A018B011A8E198E188E1F8A1E8A1D8A0A
:1012F0001C8A1B8A40E050E09A01220F331F240F02
:10130000351F220F331F220F331FF901EE53FF4FFA
:1013100085919591A591B4918E159F05A007B10770
:10132000E9F4F901EA53FF4F859194918B8B9C8BE3
:10133000F901E853FF4F859194918D8B9E8BF901B4
:10134000E653FF4F859194918F8B988F24533F4F95
:10135000F90185919491898F9A8F06C04F5F5F4FF5
:101360004C30510509F0C8CF8F89988D009709F44A
:1013700048C09C85963108F040C0209168009830A4
:1013800020F09E3020F082E003C084E001C081E0C4
:10139000822B809368004C85483048F04E3060F0D6
:1013A0004631C8F1A0E0B0E0E0E0F0E009C0ADE611
:1013B000B0E0EDE6F0E004C0ABE6B0E0EBE6F0E074
:1013C0005081483040F481E090E002C0880F991FBE
:1013D0004A95E2F710C0242F30E04E3018F4285020
:1013E000304002C02E50304081E090E002C0880FB3
:1013F000991F2A95E2F7852B8C93898D9A8D0E94EF
:101400008207CE010E948907DF91CF911F910F9132
:10141000FF90EF900895ACE6B0E0ECE6F0E0D0CFBE
:10142000FC014485463150F5483028F04E3030F00C
:10143000ECE6F0E005C0EDE6F0E002C0EBE6F0E03F
:101440005081483040F481E090E002C0880F991F3D
:101450004A95E2F710C0242F30E04E3018F428509F
:10146000304002C02E50304081E090E002C0880F32
:10147000991F2A95E2F780958523808308952CEEA5
:1014800031E0FC01318320830E94100A0895F89412
:101490000C94A20AFB01DC018D91019080190110CE
:1014A000D9F3990B0895AA1BBB1B51E107C0AA1FD2
:1014B000BB1FA617B70710F0A61BB70B881F991FF5
:1014C0005A95A9F780959095BC01CD01089597FB99
:1014D000092E07260AD077FD04D0E5DF06D00020CC
:1014E0001AF4709561957F4F0895F6F79095819560
:1014F0009F4F0895A1E21A2EAA1BBB1BFD010DC030
:10150000AA1FBB1FEE1FFF1FA217B307E407F507B3
:1015100020F0A21BB30BE40BF50B661F771F881F8F
:10152000991F1A9469F760957095809590959B0125
:10153000AC01BD01CF010895EE0FFF1F0590F4919E
:10154000E02D099411E0C6E5D1E004C0FE010E943F
:0E1550009E0A2296C835D107C9F7F894FFCF3E
:10155E0052464944207265616465722073746172EB
:10156E0074696E6720757000202D2D207061737365
:10157E0065642E00202D2D206572726F722E005420
:10158E00616720726561643A2000300043686563CC
:10159E006B73756D3A2000417574686F72697A6568
:1015AE00642074616720494420003A20756E6C6F88
:1015BE00636B696E6720666F722000546167206EE0
:1015CE006F7420617574686F72697A65640030316A
:1015DE0030304331413642330030313030433231D6
:1015EE0036423500303130304332303145350030FF
:1015FE003130304332303038360055736572203119
:10160E000055736572203200557365722033005594
:10161E007365722034007E01890194019F01AA0135
:10162E00B101B801BF010400000000006104F7051C
:10163E00FC032B040F044D04000000001108F705F5
:08164E003C071B076707560764
:00000001FF
