:100000000C9461000C947E000C947E000C947E0095
:100010000C947E000C947E000C947E000C947E0068
:100020000C947E000C947E000C947E000C947E0058
:100030000C947E000C947E000C947E000C947E0048
:100040000C94EB000C947E000C947E000C947E00CB
:100050000C947E000C947E000C947E000C947E0028
:100060000C947E000C947E00000000002400270009
:100070002A0000000000250028002B0000000000DE
:1000800023002600290004040404040404040202DA
:100090000202020203030303030301020408102007
:1000A0004080010204081020010204081020000012
:1000B0000007000201000003040600000000000029
:1000C000000011241FBECFEFD8E0DEBFCDBF11E08E
:1000D000A0E0B1E0E4ECF4E002C005900D92A8309D
:1000E000B107D9F711E0A8E0B1E001C01D92A1313C
:1000F000B107E1F70E944E020C945D020C940000DF
:100100008091000161E00E94F2018091020161E0B2
:100110000E94F2018091040161E00E94F20180914D
:10012000060161E00E94F20108950F931F93CF939F
:10013000DF93082FEB0180910001602F0E941602CF
:1001400080910401602F0E94160262E370E080E05B
:1001500090E00E94590100E010E01EC08091020171
:1001600061E00E9416028091060161E00E94160281
:1001700084E690E00E9480018091020160E00E948C
:1001800016028091060160E00E94160284E690E06B
:100190000E9480010F5F1F4F0C171D07FCF2DF91BB
:1001A000CF911F910F91089581E060E47FE10E945B
:1001B000950064EF71E080E090E00E94590180E0DA
:1001C00060E47FE10E94950064EF71E080E090E0E0
:1001D0000E94590108951F920F920FB60F92112499
:1001E0002F933F938F939F93AF93BF9380910C0175
:1001F00090910D01A0910E01B0910F01309110016D
:100200000196A11DB11D232F2D5F2D3720F02D57F5
:100210000196A11DB11D2093100180930C019093B4
:100220000D01A0930E01B0930F01809108019091F0
:100230000901A0910A01B0910B010196A11DB11D08
:100240008093080190930901A0930A01B0930B01D8
:10025000BF91AF919F918F913F912F910F900FBEC2
:100260000F901F9018959FB7F89420910801309136
:10027000090140910A0150910B0186B5A89B06C067
:100280008F3F21F02F5F3F4F4F4F5F4F9FBF542F46
:10029000432F322F2227280F311D411D511D82E08F
:1002A000220F331F441F551F8A95D1F7B901CA0188
:1002B0000895EF92FF920F931F93CF93DF937B01EB
:1002C0008C010E943301EB010FC00E9433016C1BB3
:1002D0007D0B83E0683E780738F00894E108F10868
:1002E00001091109C851DC4FE114F10401051105A0
:1002F00061F7DF91CF911F910F91FF90EF900895DB
:10030000019739F0880F991F880F991F029701975D
:10031000F1F70895789484B5826084BD84B58160D6
:1003200084BD85B5826085BD85B5816085BDEEE6FD
:10033000F0E0808181608083E1E8F0E010828081DC
:1003400082608083808181608083E0E8F0E080814A
:1003500081608083E1EBF0E0808184608083E0EB6A
:10036000F0E0808181608083EAE7F0E08081846052
:1003700080838081826080838081816080838081AE
:10038000806880831092C1000895833071F08430BA
:1003900028F48130A1F0823021F514C08630B1F00C
:1003A0008730D1F08430E9F404C0809180008F77E9
:1003B00003C0809180008F7D80938000089584B574
:1003C0008F7702C084B58F7D84BD08958091B00081
:1003D0008F778093B00008958091B0008F7D8093D7
:1003E000B000089590E0FC01E656FF4F2491FC0117
:1003F000EA57FF4FE491EE23C1F0F0E0EE0FFF1F4C
:10040000E859FF4F85919491DC01662341F49FB731
:10041000F8948C91209582238C939FBF08959FB769
:10042000F8948C91822B8C939FBF08950F931F9308
:10043000DF93CF930F92CDB7DEB7282F30E0F901CD
:10044000E255FF4F8491F901E656FF4F14912A5768
:100450003F4FF90104910023D9F0882321F06983EB
:100460000E94C5016981E02FF0E0EE0FFF1FEE58FA
:10047000FF4F85919491DC019FB7F894662321F496
:100480008C911095812302C08C91812B8C939FBFFE
:100490000F90CF91DF911F910F910895CF93DF932C
:1004A0000E948A010E948000C0E0D0E00E94D40037
:1004B0002097E1F30E940000F9CFF8940C946002B9
:0404C000F894FFCFDE
:0804C40003000200070006001E
:00000001FF
