:100000000C9462000C948A000C948A000C948A0070
:100010000C948A000C948A000C948A000C948A0038
:100020000C948A000C948A000C948A000C948A0028
:100030000C948A000C948A000C948A000C948A0018
:100040000C9412020C948A000C94EF030C9420047C
:100050000C948A000C948A000C948A000C948A00F8
:100060000C948A000C948A000000000024002700F1
:100070002A0000000000250028002B0000000000DE
:1000800023002600290004040404040404040202DA
:100090000202020203030303030301020408102007
:1000A0004080010204081020010204081020000012
:1000B0000007000201000003040600000000000029
:1000C0000000E50411241FBECFEFD8E0DEBFCDBF96
:1000D00013E0A0E0B1E0ECEAFEE002C005900D9272
:1000E000A033B107D9F713E0A0E3B3E001C01D923C
:1000F000A03EB107E1F710E0C4ECD0E004C02297C5
:10010000FE010E945007C23CD107C9F70E94220598
:100110000C94E3060C940000CF93DF93C1ECD3E082
:10012000CE0160E071E00E948C05CE0169E171E0D2
:100130000E948C05CE0168E371E00E948C05CE011F
:1001400062E671E00E948C05CE0168E871E00E94D1
:100150008C05CE016BEA71E00E948C05CE016EEC3D
:1001600071E00E948C05CE0164EF71E00E948C0565
:10017000DF91CF91089581EC93E06AE172E00E94F3
:100180006C0580911B03813029F481EC93E06EE2D1
:1001900072E004C081EC93E068E372E00E948C0599
:1001A00081EC93E06AE472E00E946C0560911C03AC
:1001B00070911D0381EC93E04AE050E00E94080634
:1001C00081EC93E069E572E00E948C0581EC93E09C
:1001D0006DE572E00E946C0560911E0370911F0333
:1001E00081EC93E04AE050E00E940F0681EC93E03E
:1001F00064EF71E00E948C05089581EC93E06DE658
:1002000072E00E946C0580911B03882341F481E019
:1002100080931B0381EC93E06EE272E006C01092C3
:100220001B0381EC93E068E372E00E948C0581EC93
:1002300093E064EF71E00E948C05089581EC93E0F7
:1002400069E872E00E948C0581EC93E00E9436031D
:100250000097D1F381EC93E00E94DF0670931D03B9
:1002600060931C0381EC93E061EA72E00E946C05EC
:1002700060911C0370911D0381EC93E04AE050E013
:100280000E94080681EC93E069E572E00E948C050B
:1002900081EC93E064EF71E00E948C05089581EC9D
:1002A00093E064EB72E00E948C0581EC93E00E9485
:1002B00036030097D1F381EC93E00E94DF06709340
:1002C0001F0360931E0381EC93E066EC72E00E94D2
:1002D0006C0560911E0370911F0381EC93E04AE06E
:1002E00050E00E940F0681EC93E064EF71E00E9401
:1002F0008C050895CF93DF938BE061E00E94FE02AE
:1003000080911B03813019F483E061E002C083E037
:1003100060E00E94FE0281EC93E06AED72E00E94D0
:100320008C05C0E0D0E019C082E061E00E94FE02CE
:1003300080911C0390911D03969587950E946802F9
:1003400082E060E00E94FE0280911C0390911D03F8
:10035000969587950E946802219680911E03909140
:100360001F03C817D90700F38BE060E00E94FE026C
:1003700081EC93E064EF72E00E948C0581EC93E0E5
:1003800064EF71E00E948C05DF91CF91089582E0C7
:1003900061E00E94DA0283E061E00E94DA028BE011
:1003A00061E00E94DA0281EC93E040E855E260E00F
:1003B00070E00E9467040E948C00089581EC93E035
:1003C0000E9436031816190664F581EC93E00E942A
:1003D00065038E36D1F08F362CF4843681F0883662
:1003E000D1F407C0843771F0883791F0833799F4DE
:1003F00003C00E948C0008950E94BB0008950E94D3
:10040000FD0008950E941E0108950E944F01089565
:100410000E947A01089581EC93E066E073E00E9407
:100420008C0508951F920F920FB60F9211242F93EF
:100430003F938F939F93AF93BF9380913403909199
:100440003503A0913603B0913703309138030196FC
:10045000A11DB11D232F2D5F2D3720F02D570196A3
:10046000A11DB11D2093380380933403909335036D
:10047000A0933603B09337038091300390913103FA
:10048000A0913203B09133030196A11DB11D809359
:10049000300390933103A0933203B0933303BF91A1
:1004A000AF919F918F913F912F910F900FBE0F9021
:1004B0001F9018958FB7F89420913403309135032D
:1004C00040913603509137038FBFB901CA01089597
:1004D000019739F0880F991F880F991F029701978C
:1004E000F1F70895789484B5826084BD84B5816005
:1004F00084BD85B5826085BD85B5816085BDEEE62C
:10050000F0E0808181608083E1E8F0E0108280810A
:1005100082608083808181608083E0E8F0E0808178
:1005200081608083E1EBF0E0808184608083E0EB98
:10053000F0E0808181608083EAE7F0E08081846080
:1005400080838081826080838081816080838081DC
:10055000806880831092C1000895833071F08430E8
:1005600028F48130A1F0823021F514C08630B1F03A
:100570008730D1F08430E9F404C0809180008F7717
:1005800003C0809180008F7D80938000089584B5A2
:100590008F7702C084B58F7D84BD08958091B000AF
:1005A0008F778093B00008958091B0008F7D809305
:1005B000B000089590E0FC01E656FF4F2491FC0145
:1005C000EA57FF4FE491EE23C1F0F0E0EE0FFF1F7A
:1005D000E859FF4F85919491DC01662341F49FB760
:1005E000F8948C91209582238C939FBF08959FB798
:1005F000F8948C91822B8C939FBF08950F931F9337
:10060000DF93CF930F92CDB7DEB7282F30E0F901FB
:10061000E255FF4F8491F901E656FF4F14912A5796
:100620003F4FF90104910023D9F0882321F0698319
:100630000E94AD026981E02FF0E0EE0FFF1FEE583F
:10064000FF4F85919491DC019FB7F894662321F4C4
:100650008C911095812302C08C91812B8C939FBF2C
:100660000F90CF91DF911F910F910895FC01848528
:100670009585FC01E05CFF4F208131818E5B9F4FAF
:10068000FC0180819181281B390B2F733070C901C7
:100690000895FC0184859585FC01E05CFF4F408155
:1006A0005181FC01EE5BFF4F2081318142175307DE
:1006B00041F00190F081E02DE80FF91F208130E03A
:1006C00002C02FEF3FEFC9010895FC018485958595
:1006D000FC01E05CFF4F40815181FC01EE5BFF4F6C
:1006E000208131814217530771F0A081B181A80F99
:1006F000B91F2C918081918101968F7390709183A5
:10070000808330E002C02FEF3FEFC9010895DC0184
:100710001E968D919C911F97FC01E05CFF4F8E5BB4
:100720009F4F40815181DC012D913C9111974217DF
:100730005307B9F708951F93FC01162F26853785B7
:10074000D901A05CBF4F8D919C91019660E470E04F
:100750000E941907D901AE5BBF4F4D915C91119773
:1007600084179507D1F3D901A05CBF4F0D90BC91C0
:10077000A02DA20FB31F1C93A685B785A05CBF4F09
:1007800011969C938E93A689B7892C9181E090E075
:10079000058C02C0880F991F0A94E2F7282B2C932E
:1007A00081E090E01F910895FB01E05CFF4F208104
:1007B00031812F5F3F4F2F733070DB01AE5BBF4F36
:1007C0004D915C9111972417350739F0A081B181C3
:1007D000A60FB71F8C9331832083089508951F922D
:1007E0000F920FB60F9211242F933F934F935F9365
:1007F0006F937F938F939F93AF93BF93EF93FF93E9
:100800008091C60069E373E00E94D403FF91EF91E9
:10081000BF91AF919F918F917F916F915F914F9118
:100820003F912F910F900FBE0F901F90189581EC64
:1008300093E00E943603009711F00E94EE030895A2
:100840001F920F920FB60F9211242F933F935F9335
:100850006F937F938F939F93AF93BF93EF93FF9388
:100860002091BD033091BE038091BF039091C003DE
:100870002817390731F48091C1008F7D8093C10022
:1008800016C0E091BF03F091C003E358FC4F2081F4
:100890008091BF039091C003019660E470E00E94D4
:1008A00019079093C0038093BF032093C600FF9164
:1008B000EF91BF91AF919F918F917F916F915F91D8
:1008C0003F912F910F900FBE0F901F901895DF92C0
:1008D000EF92FF920F931F93CF93DF93EC017A0176
:1008E0008B01DD24D394403081EE580780E0680707
:1008F00080E0780749F4DD24EC89FD89108260E806
:1009000074E88EE190E00FC0EC89FD8981E090E011
:100910000E8C02C0880F991F0A94E2F7808360E072
:1009200079E08DE390E0A80197010E942C07215007
:10093000304040405040569547953795279580E187
:100940002030380710F0DD20B1F6E889F9893083CE
:10095000EA89FB892083EE89FF89408181E090E06C
:100960009C010A8C02C0220F331F0A94E2F7422B2B
:100970004083EE89FF8940819C010B8C02C0220FCD
:10098000331F0A94E2F7422B4083EE89FF894081AE
:100990009C010C8C02C0220F331F0A94E2F7422BF9
:1009A0004083EE89FF8920810D8C02C0880F991F3A
:1009B0000A94E2F7809582238083DF91CF911F9183
:1009C0000F91FF90EF90DF9008951092C403109262
:1009D000C30388EE93E0A0E0B0E08093C50390935A
:1009E000C603A093C703B093C803E3ECF3E084E22B
:1009F00093E09293829389E393E0958784878DE7D0
:100A000093E09787868785EC90E0918B808B84ECD0
:100A100090E0938B828B80EC90E0958B848B81ECC3
:100A200090E0978B868B86EC90E0918F808F84E0AE
:100A3000828F83E0838F87E0848F85E0858F81E0DC
:100A4000868F0895CF93DF930E9472020E94C701A0
:100A5000C7E1D4E00E94DE012097E1F30E94170471
:100A6000F9CFCF92DF92EF92FF920F931F93CF9324
:100A7000DF936C017B018A01C0E0D0E00FC0D70199
:100A80006D917D01D601ED91FC910190F081E02DF9
:100A9000C6010995C80FD91F015010400115110555
:100AA00071F7CE01DF91CF911F910F91FF90EF90E1
:100AB000DF90CF900895DB010D900020E9F7AD01A4
:100AC00041505040461B570BDC01ED91FC910280D8
:100AD000F381E02D099508950E945B050895DC01DE
:100AE000ED91FC910190F081E02D099508950F930F
:100AF0001F93CF93DF93EC016DE00E946F058C0193
:100B0000CE016AE00E946F05080F191FC801DF912E
:100B1000CF911F910F9108950F931F93CF93DF9360
:100B2000EC010E945B058C01CE010E947705080F45
:100B3000191FC801DF91CF911F910F9108958F92D6
:100B40009F92AF92BF92CF92DF92EF92FF920F935C
:100B50001F93DF93CF93CDB7DEB7A1970FB6F8946D
:100B6000DEBF0FBECDBF6C01042FE52FCB01122FCE
:100B700019A2223008F41AE021E2E22EF12CEC0E48
:100B8000FD1E812E9924AA24BB2403C0022FE32F2B
:100B9000CA01602F7E2FA50194010E942C07129F8D
:100BA000802D1124081B0894E108F1080A3014F480
:100BB000005D01C0095CF701008321153105410585
:100BC000510521F7C601B7010E945B05A1960FB63A
:100BD000F894DEBF0FBECDBFCF91DF911F910F9173
:100BE000FF90EF90DF90CF90BF90AF909F908F904D
:100BF00008952115310549F4DC01ED91FC91019036
:100C0000F081E02D642F099508950E949F050895B5
:100C10009A01AB0160E070E00E94F90508950F931E
:100C20001F93CF93DF93EC019A01AB0160E070E07A
:100C30000E94F9058C01CE010E947705080F191F4B
:100C4000C801DF91CF911F910F910895CF93DF934A
:100C5000EC010E945A02688779878A879B87E8811E
:100C6000F9810084F185E02DCE0109959C0197FF63
:100C700015C00E945A02288539854A855B85621B0A
:100C8000730B840B950B2C813D814E815F81621724
:100C900073078407950718F32FEF3FEFC901DF9122
:100CA000CF910895CF93DF93EC01CE010E942606E9
:100CB0009C0197FD0FC08D32910561F0C0978A307D
:100CC000910540F0E881F9810680F781E02DCE01A1
:100CD0000995EBCFC901DF91CF9108959F92AF9213
:100CE000BF92CF92DF92EF92FF920F931F93CF9319
:100CF000DF936C01A62E0E945206EC0197FD4EC0B8
:100D0000EE24FF2487019924BB24A7FCB094CA15C4
:100D1000DB0531F1CD32D10509F1CE01C0978A3022
:100D20009105F0F4C801B7012AE030E040E050E05E
:100D30000E94E6067B018C01CE01AA2797FDA095B3
:100D4000BA2FE80EF91E0A1F1B1F80ED9FEFAFEFB1
:100D5000BFEFE80EF91E0A1F1B1F02C099249394CF
:100D6000D601ED91FC910680F781E02DC601099531
:100D7000C6010E942606EC01C0978A30910538F220
:100D8000CA15DB0521F2992061F010950095F094C9
:100D9000E094E11CF11C011D111D03C0EE24FF2491
:100DA0008701B701C801DF91CF911F910F91FF908B
:100DB000EF90DF90CF90BF90AF909F90089561E04B
:100DC0000E946E060895F8940C945407629FD00117
:100DD000739FF001829FE00DF11D649FE00DF11DF6
:100DE000929FF00D839FF00D749FF00D659FF00DA5
:100DF0009927729FB00DE11DF91F639FB00DE11D92
:100E0000F91FBD01CF0111240895AA1BBB1B51E19D
:100E100007C0AA1FBB1FA617B70710F0A61BB70B6A
:100E2000881F991F5A95A9F780959095BC01CD010F
:100E3000089597FB092E07260AD077FD04D0E5DF39
:100E400006D000201AF4709561957F4F0895F6F74B
:100E5000909581959F4F0895A1E21A2EAA1BBB1B66
:100E6000FD010DC0AA1FBB1FEE1FFF1FA217B30776
:100E7000E407F50720F0A21BB30BE40BF50B661F8C
:100E8000771F881F991F1A9469F760957095809550
:100E900090959B01AC01BD01CF010895EE0FFF1F9E
:0C0EA0000590F491E02D0994F894FFCF28
:100EAC00446F6F72204D6F746F7220546573742091
:100EBC0050726F6772616D2E00456E74657220689A
:100ECC0020746F2073686F7720746869732068656D
:100EDC006C70207465787400456E74657220732094
:100EEC00746F2073686F7720612073756D6D6172FC
:100EFC0079206F6620616C6C2073657474696E6701
:100F0C007300456E746572206420746F20696E7670
:100F1C0065727420746865206D6F746F72206469DB
:100F2C0072656374696F6E00456E7465722074200F
:100F3C00746F2073657420746865207374657020F9
:100F4C0064656C61792074696D6500456E746572B9
:100F5C00206E20746F2073657420746865206E7524
:100F6C006D626572206F6620737465707300456ED8
:100F7C00746572207820746F20657865637574656C
:100F8C0020746865206D6F746F72206D6F76656D5F
:100F9C00656E74002D2D2D2D2D2D2D2D2D2D2D2DE2
:100FAC002D2D2D2D2D2D2D2D2D2D2D2D2D2D2D2D65
:100FBC002D2D2D2D2D2D2D2D2D004D6F746F72205F
:100FCC00646972656374696F6E2069732000636C69
:100FDC006F636B7769736500636F756E7465722DE3
:100FEC00636C6F636B776973650053746570206411
:100FFC00656C6179206973200020757300537465EA
:10100C0070204E756D626572206973200053657493
:10101C0074696E67206D6F746F722064697265639A
:10102C0074696F6E20746F2000456E746572207346
:10103C007465702064656C617920696E2075733AF3
:10104C0000537465702044656C617920736574205D
:10105C00746F2000456E7465722073746570206E19
:10106C00756D6265720053746570204E756D6265A6
:10107C00722073657420746F2000537461727469EC
:10108C006E6720746F207475726E206D6F746F7242
:10109C002E2E2E004D6F76656D656E742066696E12
:1010AC00697368656400556E7265636F676E697A03
:1010BC00656420636F6D6D616E640001D007640020
:1010CC00000000009B0331053603650349038703C9
:00000001FF
