:100000000C9435000C945D000C945D000C945D0024
:100010000C945D000C945D000C945D000C945D00EC
:100020000C945D000C945D000C945D000C945D00DC
:100030000C945D000C945D000C945D000C945D00CC
:100040000C94D1000C945D000C945A020C948B0219
:100050000C945D000C945D000C945D000C945D00AC
:100060000C945D000C945D00500311241FBECFEF73
:10007000D8E0DEBFCDBF11E0A0E0B1E0E8ECF0E1F8
:1000800002C005900D92A632B107D9F711E0A6E2A1
:10009000B1E001C01D92A63DB107E1F710E0CAE64C
:1000A000D0E004C02297FE010E945E08C836D10746
:1000B000C9F70E948D030C94F9050C940000CF93AE
:1000C000DF93C7EBD1E0CE0140E855E260E070E09D
:1000D0000E94D202CE0160E071E00E94F7030E940C
:1000E0007705DF91CF9108950F931F9384EB0E94C2
:1000F000A20587E00E94D40585EB0E94C9050E94F5
:10010000E505182F0E94E505082F0E94EF050E94C3
:10011000CC05602F70E06F777070762F6627610FC7
:10012000711D882777FD8095982F0E9400072AE08F
:1001300037ED43EA5CE30E94B0072AE037ED43E283
:100140005CE30E94FC0523E333E948E853E40E94A2
:10015000FC051F910F910895EF92FF920F931F934B
:10016000CF93DF930E9474007B018C01C7EBD1E039
:10017000CE0169E071E00E94D703CE01B801A7016A
:1001800022E030E00E94640568EE73E080E090E0D9
:100190000E943F01DF91CF911F910F91FF90EF904F
:1001A00008951F920F920FB60F9211242F933F9331
:1001B0008F939F93AF93BF9380912A0190912B01CE
:1001C000A0912C01B0912D0130912E010196A11D1D
:1001D000B11D232F2D5F2D3720F02D570196A11D26
:1001E000B11D20932E0180932A0190932B01A0939F
:1001F0002C01B0932D018091260190912701A091AF
:100200002801B09129010196A11DB11D80932601FD
:1002100090932701A0932801B0932901BF91AF913A
:100220009F918F913F912F910F900FBE0F901F9034
:1002300018959FB7F894209126013091270140919D
:1002400028015091290186B5A89B06C08F3F21F057
:100250002F5F3F4F4F4F5F4F9FBF542F432F322F82
:100260002227280F311D411D511D82E0220F331F0F
:10027000441F551F8A95D1F7B901CA010895EF921D
:10028000FF920F931F93CF93DF937B018C010E940A
:100290001901EB010FC00E9419016C1B7D0B83E05B
:1002A000683E780738F00894E108F108010911095F
:1002B000C851DC4FE114F1040105110561F7DF912C
:1002C000CF911F910F91FF90EF900895789484B58E
:1002D000826084BD84B5816084BD85B5826085BD42
:1002E00085B5816085BDEEE6F0E080818160808328
:1002F000E1E8F0E01082808182608083808181600B
:100300008083E0E8F0E0808181608083E1EBF0E0D1
:10031000808184608083E0EBF0E080818160808375
:10032000EAE7F0E08081846080838081826080835E
:100330008081816080838081806880831092C10089
:100340000895FC0184859585FC01E05CFF4F2081C8
:1003500031818E5B9F4FFC0180819181281B390B7D
:100360002F733070C9010895FC0184859585FC01C7
:10037000E05CFF4F40815181FC01EE5BFF4F20812B
:1003800031814217530741F00190F081E02DE80FD1
:10039000F91F208130E002C02FEF3FEFC90108951F
:1003A000FC0184859585FC01E05CFF4F4081518113
:1003B000FC01EE5BFF4F208131814217530771F042
:1003C000A081B181A80FB91F2C91808191810196E4
:1003D0008F7390709183808330E002C02FEF3FEFE6
:1003E000C9010895DC011E968D919C911F97FC0117
:1003F000E05CFF4F8E5B9F4F40815181DC012D916E
:100400003C91119742175307B9F708951F93FC01C8
:10041000162F26853785D901A05CBF4F8D919C9101
:10042000019660E470E00E942708D901AE5BBF4FDF
:100430004D915C91119784179507D1F3D901A05C78
:10044000BF4F0D90BC91A02DA20FB31F1C93A6858A
:10045000B785A05CBF4F11969C938E93A689B789F0
:100460002C9181E090E0058C02C0880F991F0A94BE
:10047000E2F7282B2C9381E090E01F910895FB0177
:10048000E05CFF4F208131812F5F3F4F2F73307031
:10049000DB01AE5BBF4F4D915C911197241735077F
:1004A00039F0A081B181A60FB71F8C9331832083CF
:1004B000089508951F920F920FB60F9211242F9353
:1004C0003F934F935F936F937F938F939F93AF93DC
:1004D000BF93EF93FF938091C6006FE271E00E949B
:1004E0003F02FF91EF91BF91AF919F918F917F91CB
:1004F0006F915F914F913F912F910F900FBE0F9091
:100500001F90189587EB91E00E94A101009711F0D0
:100510000E94590208951F920F920FB60F92112454
:100520002F933F935F936F937F938F939F93AF939B
:10053000BF93EF93FF932091B3013091B401809169
:10054000B5019091B6012817390731F48091C100A7
:100550008F7D8093C10016C0E091B501F091B60186
:10056000ED58FE4F20818091B5019091B601019622
:1005700060E470E00E9427089093B6018093B50173
:100580002093C600FF91EF91BF91AF919F918F9102
:100590007F916F915F913F912F910F900FBE0F90C0
:1005A0001F901895DF92EF92FF920F931F93CF93B6
:1005B000DF93EC017A018B01DD24D394403081EE8E
:1005C000580780E0680780E0780749F4DD24EC896B
:1005D000FD89108260E874E88EE190E00FC0EC893C
:1005E000FD8981E090E00E8C02C0880F991F0A946B
:1005F000E2F7808360E079E08DE390E0A801970165
:100600000E943A082150304040405040569547954E
:100610003795279580E12030380710F0DD20B1F6BE
:10062000E889F9893083EA89FB892083EE89FF898B
:10063000408181E090E09C010A8C02C0220F331FB0
:100640000A94E2F7422B4083EE89FF8940819C01A6
:100650000B8C02C0220F331F0A94E2F7422B408317
:10066000EE89FF8940819C010C8C02C0220F331F50
:100670000A94E2F7422B4083EE89FF8920810D8C9A
:1006800002C0880F991F0A94E2F780958223808325
:10069000DF91CF911F910F91FF90EF90DF90089520
:1006A0001092BA011092B90188EE93E0A0E0B0E098
:1006B0008093BB019093BC01A093BD01B093BE0198
:1006C000E9EBF1E089E191E0929382938FE291E08E
:1006D0009587848783E791E09787868785EC90E00C
:1006E000918B808B84EC90E0938B828B80EC90E0FC
:1006F000958B848B81EC90E0978B868B86EC90E0D9
:10070000918F808F84E0828F83E0838F87E0848F56
:1007100085E0858F81E0868F0895CF93DF930E94D7
:1007200066010E945F00C2E8D2E00E94AC00209700
:10073000E1F30E948202F9CFCF92DF92EF92FF9213
:100740000F931F93CF93DF936C017B018A01C0E06D
:10075000D0E00FC0D7016D917D01D601ED91FC91E4
:100760000190F081E02DC6010995C80FD91F0150F5
:1007700010400115110571F7CE01DF91CF911F9146
:100780000F91FF90EF90DF90CF900895DB010D90D7
:100790000020E9F7AD0141505040461B570BDC01EA
:1007A000ED91FC910280F381E02D099508950E945E
:1007B000C6030895DC01ED91FC910190F081E02DDC
:1007C000099508950F931F93CF93DF93EC016DE08C
:1007D0000E94DA038C01CE016AE00E94DA03080F5E
:1007E000191FC801DF91CF911F910F9108950F93A9
:1007F0001F93CF93DF93EC010E94C6038C01CE01BF
:100800000E94E203080F191FC801DF91CF911F91C9
:100810000F9108958F929F92AF92BF92CF92DF92E5
:10082000EF92FF920F931F93DF93CF93CDB7DEB775
:10083000A1970FB6F894DEBF0FBECDBF6C01042F99
:10084000E52FCB01122F19A2223008F41AE021E281
:10085000E22EF12CEC0EFD1E812E9924AA24BB243D
:1008600003C0022FE32FCA01602F7E2FA501940140
:100870000E943A08129F802D1124081B0894E10859
:10088000F1080A3014F4005D01C0095CF70100832F
:10089000211531054105510521F7C601B7010E9417
:1008A000C603A1960FB6F894DEBF0FBECDBFCF91A1
:1008B000DF911F910F91FF90EF90DF90CF90BF904D
:1008C000AF909F908F9008952115310549F4DC0178
:1008D000ED91FC910190F081E02D642F0995089530
:1008E0000E940A040895CF92DF92EF92FF920F9335
:1008F0001F93CF93DF93EC017A018B012115310512
:1009000041F4E881F9810190F081E02D642F09958F
:100910001AC02A303105A9F477FF12C06DE20E9497
:10092000DA036C0144275527BA014E195F09600BA1
:10093000710BCE012AE00E940A04C80ED91E04C021
:100940002AE00E940A046C01C601DF91CF911F9139
:100950000F91FF90EF90DF90CF9008956F927F926C
:100960009F92AF92BF92CF92DF92EF92FF920F933E
:100970001F93CF93DF933C017A018B01C22ECB01F1
:10098000BA0120E030E0A9010E94610687FF0AC099
:10099000C3016DE20E94DA03EC0117FB109517F911
:1009A000109502C0C0E0D0E0DD2450E040E030E02F
:1009B0002FE311C0DA01F9016B2F742F8F2F922FC3
:1009C00020E030E040E251E40E946506562F472FB8
:1009D000382F292FD394DC1468F3C801B701DA014A
:1009E000F9012B2F342F4F2F5E2F0E94FD055B0145
:1009F000F82E992E7B2D0E94D206162FD72EE82E88
:100A0000092F0E94FE069B01AC016A2D7B2D8F2DC4
:100A1000992D0E94FC05962EA72EB82EF92EC30103
:100A2000412F5D2D6E2D702F2AE030E00E9464046E
:100A3000C80FD91FCC20B9F1C30163E171E00E9456
:100A4000C603C80FD91F2FC0692D7A2D8B2D9F2D5E
:100A500020E030E040E251E40E94B007D62EB72EED
:100A6000A82E992E0E94CD067B010027F7FC009549
:100A7000102FC301B801A7012AE030E00E947304DF
:100A8000C80FD91FC801B7010E9400079B01AC0124
:100A90006D2D7B2D8A2D992D0E94FC05962EA72E5B
:100AA000B82EF92ECA94CC2079F6CE01DF91CF91E1
:100AB0001F910F91FF90EF90DF90CF90BF90AF907C
:100AC0009F907F906F9008950F931F93CF93DF9324
:100AD000EC010E94AE048C01CE010E94E203080FDB
:100AE000191FC801DF91CF911F910F9108951092A6
:100AF000B90088E98093B800089594EA9093BC0007
:100B00009091BC0097FFFCCF9091B900987F9830EE
:100B100011F0903199F48093BB0084E88093BC007D
:100B20008091BC0087FFFCCF9091B900987F9831ED
:100B300039F081E0903429F480E0089581E008954F
:100B400080E0089544EA34E824E94093BC009091A1
:100B5000BC0097FFFCCF9091B900987F983011F0BE
:100B6000903199F78093BB003093BC009091BC000A
:100B700097FFFCCF9091B900987F903211F0983593
:100B800039F42093BC009091BC0094FDFCCFDDCFE4
:100B900008950E947D05089584E98093BC008091AA
:100BA000BC0084FDFCCF08958093BB0084E8809353
:100BB000BC008091BC0087FFFCCF9091B900987F6A
:100BC00081E0983209F480E0089584EC8093BC00C1
:100BD0008091BC0087FFFCCF8091BB00089584E822
:100BE0008093BC008091BC0087FFFCCF8091BB004C
:100BF0000895F8940C9462085058BB27AA270ED089
:100C000075C166D130F06BD120F031F49F3F11F403
:100C10001EF45BC10EF4E095E7FB51C1E92F77D1DB
:100C200080F3BA17620773078407950718F071F409
:100C30009EF58FC10EF4E0950B2EBA2FA02D0B015F
:100C4000B90190010C01CA01A0011124FF27591B11
:100C500099F0593F50F4503E68F11A16F040A22F17
:100C6000232F342F4427585FF3CF46953795279588
:100C7000A795F0405395C9F77EF41F16BA0B620B87
:100C8000730B840BBAF09150A1F0FF0FBB1F661FCE
:100C9000771F881FC2F70EC0BA0F621F731F841F11
:100CA00048F4879577956795B795F7959E3F08F037
:100CB000B3CF9395880F08F09927EE0F97958795F6
:100CC0000895D9D008F481E008950CD00FC107D160
:100CD00040F0FED030F021F45F3F19F0F0C0511128
:100CE00039C1F3C014D198F39923C9F35523B1F353
:100CF000951B550BBB27AA2762177307840738F08B
:100D00009F5F5F4F220F331F441FAA1FA9F333D0E9
:100D10000E2E3AF0E0E830D091505040E695001C9D
:100D2000CAF729D0FE2F27D0660F771F881FBB1F59
:100D3000261737074807AB07B0E809F0BB0B802D33
:100D4000BF01FF2793585F4F2AF09E3F510568F07F
:100D5000B6C000C15F3FECF3983EDCF38695779513
:100D60006795B795F7959F5FC9F7880F911D969581
:100D7000879597F90895E1E0660F771F881FBB1FDD
:100D8000621773078407BA0720F0621B730B840B8A
:100D9000BA0BEE1F88F7E095089504D06894B1115E
:100DA000D9C00895BCD088F09F5790F0B92F9927EB
:100DB000B751A0F0D1F0660F771F881F991F1AF066
:100DC000BA95C9F712C0B13081F0C3D0B1E008952F
:100DD000C0C0672F782F8827B85F39F0B93FCCF3B0
:100DE000869577956795B395D9F73EF4909580955C
:100DF000709561957F4F8F4F9F4F0895E89409C07C
:100E000097FB3EF490958095709561957F4F8F4F3D
:100E10009F4F9923A9F0F92F96E9BB279395F69553
:100E2000879577956795B795F111F8CFFAF4BB0FD1
:100E300011F460FF1BC06F5F7F4F8F4F9F4F16C035
:100E4000882311F096E911C0772321F09EE8872FBF
:100E5000762F05C0662371F096E8862F70E060E07B
:100E60002AF09A95660F771F881FDAF7880F9695F4
:100E7000879597F90895990F0008550FAA0BE0E898
:100E8000FEEF16161706E807F907C0F0121613064C
:100E9000E407F50798F0621B730B840B950B39F48C
:100EA0000A2661F0232B242B252B21F408950A26F2
:100EB00009F4A140A6958FEF811D811D089597F932
:100EC0009F6780E870E060E008959FEF80EC0895F0
:100ED00000240A9416161706180609060895002419
:100EE0000A9412161306140605060895092E039493
:100EF000000C11F4882352F0BB0F40F4BF2B11F407
:100F000060FF04C06F5F7F4F8F4F9F4F089557FD65
:100F10009058440F551F59F05F3F71F04795880F67
:100F200097FB991F61F09F3F79F0879508951216FE
:100F300013061406551FF2CF4695F1DF08C01616AA
:100F400017061806991FF1CF86957105610508945B
:100F50000895E894BB2766277727CB0197F9089572
:100F60000BD0C4CFB5DF28F0BADF18F0952309F015
:100F7000A6CFABCF1124EECFCADFA0F3959FD1F35C
:100F8000950F50E0551F629FF001729FBB27F00D37
:100F9000B11D639FAA27F00DB11DAA1F649F66278C
:100FA000B00DA11D661F829F2227B00DA11D621FDB
:100FB000739FB00DA11D621F839FA00D611D221F95
:100FC000749F3327A00D611D231F849F600D211D79
:100FD000822F762F6A2F11249F5750408AF0E1F01C
:100FE00088234AF0EE0FFF1FBB1F661F771F881F65
:100FF00091505040A9F79E3F510570F060CFAACFA5
:101000005F3FECF3983EDCF3869577956795B7954F
:10101000F795E7959F5FC1F7FE2B880F911D969579
:10102000879597F90895AA1BBB1B51E107C0AA1F1A
:10103000BB1FA617B70710F0A61BB70B881F991F79
:101040005A95A9F780959095BC01CD01089597FB1D
:10105000092E07260AD077FD04D0E5DF06D0002050
:101060001AF4709561957F4F0895F6F790958195E4
:101070009F4F0895A1E21A2EAA1BBB1BFD010DC0B4
:10108000AA1FBB1FEE1FFF1FA217B307E407F50738
:1010900020F0A21BB30BE40BF50B661F771F881F14
:1010A000991F1A9469F760957095809590959B01AA
:1010B000AC01BD01CF010895EE0FFF1F0590F49123
:0810C000E02D0994F894FFCF24
:1010C80053657475702E2E2E0043656C63697573B5
:1010D8003A20002E000000000006029C03A101D067
:0610E80001B401F2010059
:00000001FF
