:100000000C94AC000C94D4000C94D4000C94F8071D
:100010000C941C080C9440080C94D4000C94D4004C
:100020000C94D4000C94D4000C94D4000C94D40000
:100030000C94D4000C94D4000C94D4000C94D400F0
:100040000C9498020C94D4000C942B040C945C0433
:100050000C94D4000C94D4000C94D4000C94D400D0
:100060000C94D4000C94D40000C2010001001100D3
:1000700011000C0000E100000A002500250021000D
:10008000009600001900390039003600127A00008D
:100090001F004600460044008070000022004D0012
:1000A0004D004A00004B00003600750075007200DC
:1000B000403800004A009C009C0099008025000008
:1000C0007200EC00EC00E900C0120000E900DA0167
:1000D000DA01D70160090000D701B603B603B30304
:1000E000B0040000B3036E076E076B072C0100001D
:1000F000DC0EC11DC11DBE1D000000002400270034
:100100002A0000000000250028002B00000000004D
:100110002300260029000404040404040404020249
:100120000202020203030303030301020408102076
:100130004080010204081020010204081020000081
:100140000007000201000003040600000000000098
:1001500000008E022105930211241FBECFEFD8E0CC
:10016000DEBFCDBF12E0A0E0B1E0ECE2F9E102C0F9
:1001700005900D92A436B107D9F713E0A4E6B2E0DA
:1001800001C01D92A938B107E1F711E0C6E5D1E041
:1001900004C02297FE010E94850CC235D107C9F721
:1001A0000E945E050C942E0C0C940000CF92EF92EE
:1001B0000F9381309105A1F484E692E066E047E078
:1001C00020E00E94B20880E892E06CE04BE025E07D
:1001D00004E053E0E52E32E0C32E0E94720B06C00D
:1001E000009721F484E692E00E94B5090F91EF9008
:1001F000CF900895CF93DF93C6E2D3E0CE0140E8DD
:1002000055E260E070E00E94A30484E692E040E8DA
:1002100055E260E070E00E94DF08CE0160E071E02E
:100220000E94C80580E892E060E142E020E00E9480
:10023000BC0ADF91CF91089560ED77E080E090E017
:100240000E9406030895EF92FF920F931F93CF939E
:10025000DF937C0102E212E0C0E0D0E00AC0F801C6
:10026000619171918F01C7010E94310C2196009715
:1002700049F08091320290913302C817D9077CF37C
:10028000C0E0D0E0CE01DF91CF911F910F91FF90A0
:10029000EF900895AF92BF92CF92DF92EF92FF92CC
:1002A0000F931F93DF93CF93CDB7DEB760970FB651
:1002B000F894DEBF0FBECDBF80E892E060E040E082
:1002C0000E94860A80E892E06FE271E00E94A80531
:1002D00080E892E060E041E00E94860A80E892E0D7
:1002E00060E471E00E94A80584E692E00E94910615
:1002F000823009F002C100E010E0CC24DD24F7E0F8
:10030000EF2EF12CEC0EFD1E5E010894A11CB11C19
:1003100084E692E00E949106402F0A3020F4F70113
:10032000E00FF11F80838D3009F4E7C08A3009F4B3
:10033000E4C0833009F4E1C0823009F4DEC0982FB4
:1003400090539A3028F09151963018F4875301C099
:10035000892F00FF10C09801359527959C2D929507
:10036000907F982BF501E20FF31F90832530310524
:1003700019F0D92601C0C82E4F5F0F5F1F4F0C30F8
:10038000110531F64C3009F0B8C0198A86E293E0C5
:1003900061E571E00E94A8058E010F5F1F4F76E0B6
:1003A000E72EF12CEC0EFD1EF801A1908F01FA2D25
:1003B000F03130F486E293E06CE571E00E94A8052C
:1003C00086E293E06A2D40E150E00E9444060E155B
:1003D0001F0551F786E293E00E94B30586E293E0A1
:1003E0006EE571E00E94A8050E8186E293E0602F21
:1003F00040E150E00E9444060D1519F468E171E0F7
:1004000002C064E271E086E293E00E94C805CE017A
:1004100007960E9423017C01181619060CF045C0AE
:1004200086E293E069E671E00E94A80580E892E028
:100430000E94B40A80E892E060E040E00E94860AF0
:1004400080E892E06CE771E00E94A8058701000F48
:10045000111F085D1D4FF8016081718180E892E0F5
:100460000E94A80586E293E0B7014AE050E00E94AE
:10047000870686E293E065E871E00E94A805F8012E
:100480006081718186E293E00E94C80580E892E075
:1004900060E041E00E94860A80E892E066E971E04F
:1004A0000E94A8050E941C0124C086E293E064EA31
:1004B00071E00E94C80580E892E060E040E00E94A0
:1004C000860A80E892E067EB71E00E94A80580E868
:1004D00092E060E041E00E94860A80E892E069ECE8
:1004E00071E00E94A80568EE73E080E090E00E9451
:1004F000060386E293E00E94B30560960FB6F89477
:10050000DEBF0FBECDBFCF91DF911F910F91FF9046
:10051000EF90DF90CF90BF90AF90089581E090E092
:100520000E94D600089580E090E00E94D6000895D1
:100530001F920F920FB60F9211242F933F938F9318
:100540009F93AF93BF938091990290919A02A0914B
:100550009B02B0919C0230919D020196A11DB11D9C
:10056000232F2D5F2D3720F02D570196A11DB11D92
:1005700020939D028093990290939A02A0939B02EC
:10058000B0939C028091950290919602A09197025F
:10059000B09198020196A11DB11D80939502909390
:1005A0009602A0939702B0939802BF91AF919F914A
:1005B0008F913F912F910F900FBE0F901F90189524
:1005C0009FB7F8942091950230919602409197023E
:1005D0005091980286B5A89B06C08F3F21F02F5FEF
:1005E0003F4F4F4F5F4F9FBF542F432F322F222734
:1005F000280F311D411D511D82E0220F331F441F62
:10060000551F8A95D1F7B901CA010895EF92FF925B
:100610000F931F93CF93DF937B018C010E94E00225
:10062000EB010FC00E94E0026C1B7D0B83E0683E73
:10063000780738F00894E108F10801091109C85158
:10064000DC4FE114F1040105110561F7DF91CF9151
:100650001F910F91FF90EF900895019739F0880F47
:10066000991F880F991F02970197F1F708957894C1
:1006700084B5826084BD84B5816084BD85B58260A7
:1006800085BD85B5816085BDEEE6F0E08081816045
:100690008083E1E8F0E01082808182608083808145
:1006A00081608083E0E8F0E0808181608083E1EB1D
:1006B000F0E0808184608083E0EBF0E08081816005
:1006C0008083EAE7F0E080818460808380818260BB
:1006D00080838081816080838081806880831092A4
:1006E000C1000895FC0184859585FC01E05CFF4F05
:1006F000208131818E5B9F4FFC0180819181281B7D
:10070000390B2F733070C9010895FC0184859585DC
:10071000FC01E05CFF4F40815181FC01EE5BFF4F2B
:10072000208131814217530741F00190F081E02D83
:10073000E80FF91F208130E002C02FEF3FEFC90121
:100740000895FC0184859585FC01E05CFF4F4081A4
:100750005181FC01EE5BFF4F20813181421753072D
:1007600071F0A081B181A80FB91F2C918081918176
:1007700001968F7390709183808330E002C02FEFD9
:100780003FEFC9010895DC011E968D919C911F9742
:10079000FC01E05CFF4F8E5B9F4F40815181DC018B
:1007A0002D913C91119742175307B9F708951F9364
:1007B000FC01162F26853785D901A05CBF4F8D918E
:1007C0009C91019660E470E00E944E0CD901AE5BF2
:1007D000BF4F4D915C91119784179507D1F3D901C3
:1007E000A05CBF4F0D90BC91A02DA20FB31F1C9316
:1007F000A685B785A05CBF4F11969C938E93A68962
:10080000B7892C9181E090E0058C02C0880F991F78
:100810000A94E2F7282B2C9381E090E01F91089531
:10082000FB01E05CFF4F208131812F5F3F4F2F7331
:100830003070DB01AE5BBF4F4D915C911197241777
:10084000350739F0A081B181A60FB71F8C93318392
:100850002083089508951F920F920FB60F921124CE
:100860002F933F934F935F936F937F938F939F93B8
:10087000AF93BF93EF93FF938091C6006EE972E050
:100880000E941004FF91EF91BF91AF919F918F91C2
:100890007F916F915F914F913F912F910F900FBE7C
:1008A0000F901F90189586E293E00E9472030097C4
:1008B00011F00E942A0408951F920F920FB60F9212
:1008C00011242F933F935F936F937F938F939F9305
:1008D000AF93BF93EF93FF932091220330912303B3
:1008E00080912403909125032817390731F48091D2
:1008F000C1008F7D8093C10016C0E0912403F09168
:100900002503EE51FD4F2081809124039091250312
:10091000019660E470E00E944E0C90932503809352
:1009200024032093C600FF91EF91BF91AF919F9157
:100930008F917F916F915F913F912F910F900FBE9B
:100940000F901F901895DF92EF92FF920F931F93D5
:10095000CF93DF93EC017A018B01DD24D3944030F7
:1009600081EE580780E0680780E0780749F4DD24CD
:10097000EC89FD89108260E874E88EE190E00FC098
:10098000EC89FD8981E090E00E8C02C0880F991FF0
:100990000A94E2F7808360E079E08DE390E0A801BB
:1009A00097010E94610C21503040404050405695C4
:1009B00047953795279580E12030380710F0DD20E6
:1009C000B1F6E889F9893083EA89FB892083EE89C9
:1009D000FF89408181E090E09C010A8C02C0220FD7
:1009E000331F0A94E2F7422B4083EE89FF8940814E
:1009F0009C010B8C02C0220F331F0A94E2F7422B9A
:100A00004083EE89FF8940819C010C8C02C0220F3B
:100A1000331F0A94E2F7422B4083EE89FF8920813D
:100A20000D8C02C0880F991F0A94E2F780958223EB
:100A30008083DF91CF911F910F91FF90EF90DF9016
:100A40000895109229031092280388EE93E0A0E005
:100A5000B0E080932A0390932B03A0932C03B093D0
:100A60002D03E8E2F3E088E392E0929382938EE92B
:100A700092E09587848782EE92E09787868785EC5F
:100A800090E0918B808B84EC90E0938B828B80EC58
:100A900090E0958B848B81EC90E0978B868B86EC35
:100AA00090E0918F808F84E0828F83E0838F87E056
:100AB000848F85E0858F81E0868F0895CF93DF93C3
:100AC0000E9437030E94FA00C3E5D4E00E944A0165
:100AD0002097E1F30E945304F9CFCF92DF92EF9277
:100AE000FF920F931F93CF93DF936C017B018A01D9
:100AF000C0E0D0E00FC0D7016D917D01D601ED912E
:100B0000FC910190F081E02DC6010995C80FD91F15
:100B1000015010400115110571F7CE01DF91CF9101
:100B20001F910F91FF90EF90DF90CF900895DB0120
:100B30000D900020E9F7AD0141505040461B570B86
:100B4000DC01ED91FC910280F381E02D099508957F
:100B50000E9497050895DC01ED91FC910190F081D0
:100B6000E02D099508950F931F93CF93DF93EC0128
:100B70006DE00E94AB058C01CE016AE00E94AB05DE
:100B8000080F191FC801DF91CF911F910F91089590
:100B90000F931F93CF93DF93EC010E9497058C0175
:100BA000CE010E94B305080F191FC801DF91CF9134
:100BB0001F910F9108958F929F92AF92BF92CF9203
:100BC000DF92EF92FF920F931F93DF93CF93CDB7F6
:100BD000DEB7A1970FB6F894DEBF0FBECDBF6C0194
:100BE000042FE52FCB01122F19A2223008F41AE0AE
:100BF00021E2E22EF12CEC0EFD1E812E9924AA2476
:100C0000BB2403C0022FE32FCA01602F7E2FA50152
:100C100094010E94610C129F802D1124081B0894DE
:100C2000E108F1080A3014F4005D01C0095CF70125
:100C30000083211531054105510521F7C601B70192
:100C40000E949705A1960FB6F894DEBF0FBECDBFE8
:100C5000CF91DF911F910F91FF90EF90DF90CF9098
:100C6000BF90AF909F908F9008952115310549F462
:100C7000DC01ED91FC910190F081E02D642F09954C
:100C800008950E94DB0508959A01462F50E060E028
:100C900070E00E9435060895CF92DF92EF92FF92A6
:100CA0000F931F93CF93DF93EC017A018B012115F2
:100CB000310541F4E881F9810190F081E02D642F44
:100CC00009951AC02A303105A9F477FF12C06DE2E8
:100CD0000E94AB056C0144275527BA014E195F09E4
:100CE000600B710BCE012AE00E94DB05C80ED91EF5
:100CF00004C02AE00E94DB056C01C601DF91CF91A0
:100D00001F910F91FF90EF90DF90CF9008959A017F
:100D1000FB01AF01662757FD6095762F0E944C06B8
:100D20000895209145033091460328173907B1F4FF
:100D30009091880380918703981781F0E091880350
:100D4000F0E0E95BFC4F20818091880390E0019600
:100D50008F7390708093880330E002C02FEF3FEFD5
:100D6000C90108952091450330914603281739079A
:100D700079F4809187032091880390E0805C9F4FF5
:100D8000821B910960E470E00E944E0C9C0102C03D
:100D900020E030E0C90108952091450330914603D9
:100DA0002817390749F48FB7F89410928703909168
:100DB0008703909388038FBF089520914503309156
:100DC00046032817390781F490918803809187039F
:100DD000981751F0E0918803F0E0E95BFC4F208127
:100DE000332727FD309502C02FEF3FEFC90108954B
:100DF00020E001972FEF8F3F9207D9F70895FC016C
:100E000080914503909146038E179F0791F0838D43
:100E10008E7F838F8FB7F89410928703909187030A
:100E200090938803F0934603E09345038FBF81E0DE
:100E3000089580E00895EF92FF920F931F93CF9350
:100E4000DF93EC018B8DEE85FF859D8581FF04C0CE
:100E50008081892329F445C08081892309F041C01C
:100E60008B899C890E94F80608E010E0EE24E39448
:100E7000FF248D899E890E94F806EE85FF8580817A
:100E80009D85892311F0FE2803C08E2D8095F822C0
:100E9000EE0C0150104069F78F89988D0E94F8067A
:100EA0008B8D81FDF094809187032091880390E0E1
:100EB00001968F73907030E08217930779F0E0917C
:100EC0008703F0E0E95BFC4FF0828091870390E0BC
:100ED00001968F7390708093870303C08B8D816020
:100EE0008B8FDF91CF911F910F91FF90EF9008951D
:100EF000FC01A189B2899089662329F42C91892F5C
:100F00008095822302C08C91892B8C930895DF9267
:100F1000EF92FF920F931F93CF93DF93EC01E62E96
:100F2000898D9A8D009739F481E090E09B838A83C4
:100F300020E030E04BC0DFB6F8948B8D61E081FF9C
:100F400060E0CE010E947807898D9A8D05960E94F7
:100F5000F8068B8D81FF19C008E010E0FF24F394A0
:100F60008F2D8E2119F0CE0160E002C0CE0161E02C
:100F70000E947807898D9A8D0E94F806FF0C015017
:100F8000104071F7CE0160E018C008E010E0FF24C7
:100F9000F3948F2D8E2119F0CE0161E002C0CE01B5
:100FA00060E00E947807898D9A8D0E94F806FF0CF8
:100FB0000150104071F7CE0161E00E947807DFBE5A
:100FC000898D9A8D0E94F80621E030E0C901DF91F9
:100FD000CF911F910F91FF90EF90DF900895809136
:100FE000450390914603009711F00E941B07089556
:100FF0001F920F920FB60F9211242F933F934F938E
:101000005F936F937F938F939F93AF93BF93EF9370
:10101000FF930E94EF07FF91EF91BF91AF919F91D6
:101020008F917F916F915F914F913F912F910F9091
:101030000FBE0F901F9018951F920F920FB60F9230
:1010400011242F933F934F935F936F937F938F93CD
:101050009F93AF93BF93EF93FF930E94EF07FF918E
:10106000EF91BF91AF919F918F917F916F915F9120
:101070004F913F912F910F900FBE0F901F90189599
:101080001F920F920FB60F9211242F933F934F93FD
:101090005F936F937F938F939F93AF93BF93EF93E0
:1010A000FF930E94EF07FF91EF91BF91AF919F9146
:1010B0008F917F916F915F914F913F912F910F9001
:1010C0000FBE0F901F9018951F93CF93DF93EC01E5
:1010D000162F862F61E00E94D20B812F61E00E94C3
:1010E000F60B812F90E0FC01E65DFE4FE491E88B6A
:1010F000FC01EA5EFE4FE491F0E0EE0FFF1FEE5FB1
:10110000FE4F85919491898B9A8BDF91CF911F919E
:1011100008951F93CF93DF93EC01162F862F60E085
:101120000E94D20B8B8D81FD04C0812F61E00E9453
:10113000F60B1C87812F90E0FC01E65DFE4FE491E9
:10114000ED87FC01EA5EFE4FE491F0E0EE0FFF1F39
:10115000E45FFE4F859194918E879F87DF91CF91B9
:101160001F9108951F93CF93DF93EC01162F1B82DD
:101170001A8288EE93E0A0E0B0E08C839D83AE837A
:10118000BF8388E492E0998388831C8A1B8A1E8A25
:101190001D8A188E1F8A1A8E198E8B8D2170220F30
:1011A0008C7F822B8B8FCE01642F0E946408CE012E
:1011B000612F0E948908DF91CF911F910895EF92CE
:1011C000FF920F931F93CF93DF93EC017A018B0172
:1011D0001A8E198E188E1F8A1E8A1D8A1C8A1B8AD7
:1011E00040E050E09A01220F331F240F351F220FD9
:1011F000331F220F331FF901E859FF4F8591959155
:10120000A591B4918E159F05A007B107E9F4F901E6
:10121000E459FF4F859194918B8B9C8BF901E25996
:10122000FF4F859194918D8B9E8BF901E059FF4F73
:10123000859194918F8B988F2E583F4FF90185910E
:101240009491898F9A8F06C04F5F5F4F4C30510544
:1012500009F0C8CF8F89988D009709F448C09C8504
:10126000963108F040C020916800983020F09E3000
:1012700020F082E003C084E001C081E0822B8093F3
:1012800068004C85483048F04E3060F04631C8F177
:10129000A0E0B0E0E0E0F0E009C0ADE6B0E0EDE6EF
:1012A000F0E004C0ABE6B0E0EBE6F0E0508148309F
:1012B00040F481E090E002C0880F991F4A95E2F760
:1012C00010C0242F30E04E3018F42850304002C0B7
:1012D0002E50304081E090E002C0880F991F2A957F
:1012E000E2F7852B8C93898D9A8D0E94F806CE01AA
:1012F0000E94FF06DF91CF911F910F91FF90EF9019
:101300000895ACE6B0E0ECE6F0E0D0CFFC01448517
:10131000463150F5483028F04E3030F0ECE6F0E041
:1013200005C0EDE6F0E002C0EBE6F0E050814830A9
:1013300040F481E090E002C0880F991F4A95E2F7DF
:1013400010C0242F30E04E3018F42850304002C036
:101350002E50304081E090E002C0880F991F2A95FE
:10136000E2F7809585238083089528E432E0FC012C
:10137000318320830E9486090895CF93DF93EC0187
:101380008E8160E00E94F60B81E090E00E942D03C8
:101390008E8161E00E94F60B81E090E00E942D03B7
:1013A0008E8160E00E94F60B84E690E00E942D039F
:1013B000DF91CF910895AF92BF92CF92DF92EF92DB
:1013C000FF920F931F93CF93DF937C018C01095FF2
:1013D0001F4FC0E0D0E0A62EBB246801F801819128
:1013E0008F0161E00E94D20BB5010C2E02C07595F1
:1013F00067950A94E2F76170F60180810E94F60B0E
:101400002196C430D10549F7C7010E94BD09DF917B
:10141000CF911F910F91FF90EF90DF90CF90BF90F1
:10142000AF900895AF92BF92CF92DF92EF92FF926A
:101430000F931F93CF93DF937C018C01095F1F4FA4
:10144000C0E0D0E0A62EBB246801F80181918F0195
:1014500061E00E94D20BB5010C2E02C07595679514
:101460000A94E2F76170F60180810E94F60B2196E2
:10147000C830D10549F7C7010E94BD09DF91CF915E
:101480001F910F91FF90EF90DF90CF90BF90AF90A2
:1014900008951F93CF93DF93EC01162F8C81642F57
:1014A0000E94F60B8D818F3F19F060E00E94F60BD1
:1014B0008F8584FF05C0CE01612F0E94120A0FC0E4
:1014C000212F30E084E0359527958A95E1F7CE010C
:1014D000622F0E94DB09CE01612F0E94DB09DF91A0
:1014E000CF911F91089541E00E94490A81E090E068
:1014F000089540E00E94490A0895FC016089262F62
:101500002460208B6C600E94790A0895DF93CF934A
:10151000CDB7DEB728970FB6F894DEBF0FBECDBFAC
:10152000FE013196ACE5B2E028E00D900192215029
:10153000E1F7FC012389421710F0422F4150E42FBC
:10154000F0E0EE0FFF1FEC0FFD1F2181260F20683A
:10155000622F0E94790A28960FB6F894DEBF0FBE5C
:10156000CDBFCF91DF91089561E00E94790A80EDAF
:1015700097E00E942D030895CF93DF93EC01423052
:1015800018F08F8588608F874B8B1C8A222329F067
:10159000413019F48F8584608F8780E593EC0E9439
:1015A0002D038C8160E00E94F60B8E8160E00E942A
:1015B000F60B8D818F3F19F060E00E94F60B6F856E
:1015C00064FD1DC0CE0163E00E94DB0984E991E166
:1015D0000E942D03CE0163E00E94DB0984E991E1C2
:1015E0000E942D03CE0163E00E94DB0986E990E0B2
:1015F0000E942D03CE0162E00E94DB0916C06062EA
:10160000CE010E94790A84E991E10E942D036F8541
:101610006062CE010E94790A86E990E00E942D0363
:101620006F856062CE010E94790A6F856062CE018B
:101630000E94790A84E0888BCE010E947D0ACE0147
:101640000E94B40A82E0898BCE0166E00E94790A8A
:10165000DF91CF9108956F927F928F92AF92CF9248
:10166000EF920F931F93DF93CF93CDB7DEB73C017B
:10167000162F842FF301448325830683E782C086D7
:10168000A18682869D8593879E8594879F85958771
:101690009889968761E00E94D20BF30185818F3F84
:1016A00019F061E00E94D20BF301868161E00E9493
:1016B000D20B112319F0F301178603C080E1F30167
:1016C0008787C30160E141E020E00E94BC0ACF911E
:1016D000DF911F910F91EF90CF90AF908F907F90FF
:1016E0006F9008958F92AF92CF92EF920F93CF9316
:1016F000DF93A62F742F522F302FAE2C8C2CEC01A1
:101700001B821A82E8E5F2E0F983E88300D000D07A
:10171000EDB7FEB73196CDB7DEB7198211821282CE
:10172000138261E04A2F2FEF072FE52EC32E0E9470
:101730002B0B0F900F900F900F90DF91CF910F9187
:10174000EF90CF90AF908F900895833071F08430F8
:1017500028F48130A1F0823021F514C08630B1F038
:101760008730D1F08430E9F404C0809180008F7715
:1017700003C0809180008F7D80938000089584B5A0
:101780008F7702C084B58F7D84BD08958091B000AD
:101790008F778093B00008958091B0008F7D809303
:1017A000B000089590E0FC01E65DFE4F2491FC013D
:1017B000EA5EFE4FE491EE23C1F0F0E0EE0FFF1F72
:1017C000E850FF4F85919491DC01662341F49FB767
:1017D000F8948C91209582238C939FBF08959FB796
:1017E000F8948C91822B8C939FBF08950F931F9335
:1017F000DF93CF930F92CDB7DEB7282F30E0F901FA
:10180000E25CFE4F8491F901E65DFE4F14912A5E81
:101810003E4FF90104910023D9F0882321F0698318
:101820000E94A50B6981E02FF0E0EE0FFF1FEE5F35
:10183000FE4F85919491DC019FB7F894662321F4C3
:101840008C911095812302C08C91812B8C939FBF2A
:101850000F90CF91DF911F910F910895F8940C9400
:10186000890CFB01DC018D91019080190110D9F3E5
:10187000990B0895AA1BBB1B51E107C0AA1FBB1FF0
:10188000A617B70710F0A61BB70B881F991F5A950C
:10189000A9F780959095BC01CD01089597FB092E7D
:1018A00007260AD077FD04D0E5DF06D000201AF421
:1018B000709561957F4F0895F6F7909581959F4FAC
:1018C0000895A1E21A2EAA1BBB1BFD010DC0AA1F81
:1018D000BB1FEE1FFF1FA217B307E407F50720F099
:1018E000A21BB30BE40BF50B661F771F881F991F14
:1018F0001A9469F760957095809590959B01AC015D
:10190000BD01CF010895EE0FFF1F0590F491E02D6A
:10191000099411E0C6E5D1E004C0FE010E94850CE7
:0C1920002296C835D107C9F7F894FFCF14
:10192C005246494420726561646572207374617219
:10193C0074696E6720757000202D2D207061737393
:10194C0065642E00202D2D206572726F722E005250
:10195C006561647920746F207265616420202000B9
:10196C00612052464944206361726420202020206B
:10197C000054616720726561643A2000300043684E
:10198C0065636B73756D3A2000417574686F72698D
:10199C007A656420746167204944200057656C6344
:1019AC006F6D6520003A20756E6C6F636B696E67A6
:1019BC0020666F722000646F6F7220756E6C6F639F
:1019CC006B656400546167206E6F74206175746878
:1019DC006F72697A6564005468697320636172641C
:1019EC00206973206E6F742000616E206175746FB6
:1019FC007269736564206F6E65003031303043312D
:101A0C0041364233003031303043323136423500CA
:101A1C0030313030433230314535003031303043A5
:101A2C00323030383600557365722031005573658D
:101A3C007220320055736572203300557365722025
:101A4C003400DA01E501F001FB0106020D0214027B
:101A5C001B02040000000000D7036D057203A103F4
:101A6C008503C3030000000087076D05B2069106CD
:101A7C00DD06CC0600000000730A6D050000400076
:041A8C0014005400EE
:00000001FF
