:100000000C94AC000C94D4000C94D4000C943F08D5
:100010000C9463080C9487080C94D4000C94D400BE
:100020000C94D4000C94D4000C94D4000C94D40000
:100030000C94D4000C94D4000C94D4000C94D400F0
:100040000C94CC020C94D4000C945F040C94900497
:100050000C94D4000C94D4000C94D4000C94D400D0
:100060000C94D4000C94D40000C2010001001100D3
:1000700011000C0000E100000A002500250021000D
:10008000009600001900390039003600127A00008D
:100090001F004600460044008070000022004D0012
:1000A0004D004A00004B00003600750075007200DC
:1000B000403800004A009C009C0099008025000008
:1000C0007200EC00EC00E900C0120000E900DA0167
:1000D000DA01D70160090000D701B603B603B30304
:1000E000B0040000B3036E076E076B072C0100001D
:1000F000DC0EC11DC11DBE1D000000002400270034
:100100002A0000000000250028002B00000000004D
:100110002300260029000404040404040404020249
:100120000202020203030303030301020408102076
:100130004080010204081020010204081020000081
:100140000007000201000003040600000000000098
:100150000000C2025505C70211241FBECFEFD8E030
:10016000DEBFCDBF12E0A0E0B1E0E6E7FCE102C0F7
:1001700005900D92A435B107D9F713E0A4E5B2E0DC
:1001800001C01D92A938B107E1F711E0C6E5D1E041
:1001900004C02297FE010E942A0EC235D107C9F77A
:1001A0000E9492050C94990D0C940000CF92EF924E
:1001B0000F9381309105E1F484E592E066E047E039
:1001C00020E00E94F90880E792E06CE04BE025E037
:1001D00004E053E0E52E32E0C32E0E94B90B85E81F
:1001E00092E068E070E049E050E00E94EC0B06C04D
:1001F000009721F484E592E00E94FC090F91EF90B2
:10020000CF900895CF93DF93C6E2D3E0CE0140E8CC
:1002100055E260E070E00E94D70484E592E040E897
:1002200055E260E070E00E942609CE0160E071E0D6
:100230000E94FC0580E792E060E142E020E00E943D
:10024000030BDF91CF91089560ED77E080E090E0BF
:100250000E943A030895EF92FF920F931F93CF935A
:10026000DF937C0102E112E0C0E0D0E00AC0F801B7
:10027000619171918F01C7010E949C0D2196009799
:1002800049F08091220290912302C817D9077CF38C
:10029000C0E0D0E0CE01DF91CF911F910F91FF9090
:1002A000EF900895AF92BF92CF92DF92EF92FF92BC
:1002B0000F931F93DF93CF93CDB7DEB760970FB641
:1002C000F894DEBF0FBECDBF85E892E061E070E03C
:1002D0000E94380CAB01BC0186E293E02AE030E0DA
:1002E0000E94BB0686E293E06FE271E00E94FC058B
:1002F00080E792E00E94FB0A80E792E060E040E045
:100300000E94CD0A80E792E062E371E00E94DC0582
:1003100080E792E060E041E00E94CD0A85E892E04B
:1003200061E070E00E94380CAB01BC0180E792E014
:100330002AE030E00E94800680E792E06DE371E001
:100340000E94DC0568EE73E080E090E00E943A03D2
:1003500084E592E00E94D806823009F002C100E0F4
:1003600010E0CC24DD24F7E0EF2EF12CEC0EFD1E86
:100370005E010894A11CB11C84E592E00E94D8069D
:10038000402F0A3020F4F701E00FF11F80838D30F9
:1003900009F4E7C08A3009F4E4C0833009F4E1C00D
:1003A000823009F4DEC0982F90539A3028F0915192
:1003B000963018F4875301C0892F00FF10C09801B0
:1003C000359527959C2D9295907F982BF501E20FFE
:1003D000F31F90832530310519F0D92601C0C82EAE
:1003E0004F5F0F5F1F4F0C30110531F64C3009F095
:1003F000B8C0198A86E293E061E471E00E94DC05EE
:100400008E010F5F1F4F76E0E72EF12CEC0EFD1EE4
:10041000F801A1908F01FA2DF03130F486E293E0DB
:100420006CE471E00E94DC0586E293E06A2D40E115
:1004300050E00E9478060E151F0551F786E293E002
:100440000E94E70586E293E06EE471E00E94DC051D
:100450000E8186E293E0602F40E150E00E94780632
:100460000D1519F468E171E002C064E271E086E202
:1004700093E00E94FC05CE0107960E942B017C01AF
:10048000181619060CF045C086E293E069E571E0A4
:100490000E94DC0580E792E00E94FB0A80E792E080
:1004A00060E040E00E94CD0A80E792E06CE671E0F7
:1004B0000E94DC058701000F111F085E1D4FF80127
:1004C0006081718180E792E00E94DC0586E293E022
:1004D000B7014AE050E00E94CE0686E293E065E76D
:1004E00071E00E94DC05F8016081718186E293E091
:1004F0000E94FC0580E792E060E041E00E94CD0AA6
:1005000080E792E066E871E00E94DC050E94240129
:1005100024C086E293E064E971E00E94FC0580E774
:1005200092E060E040E00E94CD0A80E792E067EA56
:1005300071E00E94DC0580E792E060E041E00E940B
:10054000CD0A80E792E069EB71E00E94DC0568EE7D
:1005500073E080E090E00E943A0386E293E00E941C
:10056000E70560960FB6F894DEBF0FBECDBFCF9102
:10057000DF911F910F91FF90EF90DF90CF90BF9090
:10058000AF90089581E090E00E94D600089580E049
:1005900090E00E94D60008951F920F920FB60F921E
:1005A00011242F933F938F939F93AF93BF93809189
:1005B000990290919A02A0919B02B0919C02309175
:1005C0009D020196A11DB11D232F2D5F2D3720F017
:1005D0002D570196A11DB11D20939D028093990274
:1005E00090939A02A0939B02B0939C0280919502F3
:1005F00090919602A0919702B09198020196A11D48
:10060000B11D8093950290939602A0939702B093A8
:100610009802BF91AF919F918F913F912F910F9031
:100620000FBE0F901F9018959FB7F89420919502D8
:1006300030919602409197025091980286B5A89BFE
:1006400006C08F3F21F02F5F3F4F4F4F5F4F9FBF3F
:10065000542F432F322F2227280F311D411D511DAA
:1006600082E0220F331F441F551F8A95D1F7B9012D
:10067000CA010895EF92FF920F931F93CF93DF93D8
:100680007B018C010E941403EB010FC00E94140334
:100690006C1B7D0B83E0683E780738F00894E10816
:1006A000F10801091109C851DC4FE114F1040105F9
:1006B000110561F7DF91CF911F910F91FF90EF909E
:1006C0000895019739F0880F991F880F991F029795
:1006D0000197F1F70895789484B5826084BD84B55C
:1006E000816084BD85B5826085BD85B5816085BD2D
:1006F000EEE6F0E0808181608083E1E8F0E0108246
:10070000808182608083808181608083E0E8F0E086
:10071000808181608083E1EBF0E080818460808370
:10072000E0EBF0E0808181608083EAE7F0E08081A7
:100730008460808380818260808380818160808307
:100740008081806880831092C1000895FC018485B7
:100750009585FC01E05CFF4F208131818E5B9F4FCE
:10076000FC0180819181281B390B2F733070C901E6
:100770000895FC0184859585FC01E05CFF4F408174
:100780005181FC01EE5BFF4F2081318142175307FD
:1007900041F00190F081E02DE80FF91F208130E059
:1007A00002C02FEF3FEFC9010895FC0184859585B4
:1007B000FC01E05CFF4F40815181FC01EE5BFF4F8B
:1007C000208131814217530771F0A081B181A80FB8
:1007D000B91F2C918081918101968F7390709183C4
:1007E000808330E002C02FEF3FEFC9010895DC01A4
:1007F0001E968D919C911F97FC01E05CFF4F8E5BD4
:100800009F4F40815181DC012D913C9111974217FE
:100810005307B9F708951F93FC01162F26853785D6
:10082000D901A05CBF4F8D919C91019660E470E06E
:100830000E94D80DD901AE5BBF4F4D915C911197CD
:1008400084179507D1F3D901A05CBF4F0D90BC91DF
:10085000A02DA20FB31F1C93A685B785A05CBF4F28
:1008600011969C938E93A689B7892C9181E090E094
:10087000058C02C0880F991F0A94E2F7282B2C934D
:1008800081E090E01F910895FB01E05CFF4F208123
:1008900031812F5F3F4F2F733070DB01AE5BBF4F55
:1008A0004D915C9111972417350739F0A081B181E2
:1008B000A60FB71F8C9331832083089508951F924C
:1008C0000F920FB60F9211242F933F934F935F9384
:1008D0006F937F938F939F93AF93BF93EF93FF9308
:1008E0008091C6006EE972E00E944404FF91EF918E
:1008F000BF91AF919F918F917F916F915F914F9138
:100900003F912F910F900FBE0F901F90189586E288
:1009100093E00E94A603009711F00E945E040895E0
:100920001F920F920FB60F9211242F933F935F9354
:100930006F937F938F939F93AF93BF93EF93FF93A7
:100940002091220330912303809124039091250369
:100950002817390731F48091C1008F7D8093C10041
:1009600016C0E0912403F0912503EE51FD4F208144
:100970008091240390912503019660E470E00E9429
:10098000D80D90932503809324032093C600FF91F4
:10099000EF91BF91AF919F918F917F916F915F91F7
:1009A0003F912F910F900FBE0F901F901895DF92DF
:1009B000EF92FF920F931F93CF93DF93EC017A0195
:1009C0008B01DD24D394403081EE580780E0680726
:1009D00080E0780749F4DD24EC89FD89108260E825
:1009E00074E88EE190E00FC0EC89FD8981E090E031
:1009F0000E8C02C0880F991F0A94E2F7808360E092
:100A000079E08DE390E0A80197010E94EB0D215061
:100A1000304040405040569547953795279580E1A6
:100A20002030380710F0DD20B1F6E889F9893083ED
:100A3000EA89FB892083EE89FF89408181E090E08B
:100A40009C010A8C02C0220F331F0A94E2F7422B4A
:100A50004083EE89FF8940819C010B8C02C0220FEC
:100A6000331F0A94E2F7422B4083EE89FF894081CD
:100A70009C010C8C02C0220F331F0A94E2F7422B18
:100A80004083EE89FF8920810D8C02C0880F991F59
:100A90000A94E2F7809582238083DF91CF911F91A2
:100AA0000F91FF90EF90DF9008951092290310921C
:100AB000280388EE93E0A0E0B0E080932A039093AF
:100AC0002B03A0932C03B0932D03E8E2F3E088E21C
:100AD00092E0929382938EE992E09587848782EEEA
:100AE00092E09787868785EC90E0918B808B84ECF1
:100AF00090E0938B828B80EC90E0958B848B81ECE3
:100B000090E0978B868B86EC90E0918F808F84E0CD
:100B1000828F83E0838F87E0848F85E0858F81E0FB
:100B2000868F0895CF93DF930E946B030E9402018A
:100B3000C7E8D4E00E9452012097E1F30E948704A5
:100B4000F9CFCF92DF92EF92FF920F931F93CF9343
:100B5000DF936C017B018A01C0E0D0E00FC0D701B8
:100B60006D917D01D601ED91FC910190F081E02D18
:100B7000C6010995C80FD91F015010400115110574
:100B800071F7CE01DF91CF911F910F91FF90EF9000
:100B9000DF90CF900895DB010D900020E9F7AD01C3
:100BA00041505040461B570BDC01ED91FC910280F7
:100BB000F381E02D099508950E94CB050895DC018D
:100BC000ED91FC910190F081E02D099508950F932E
:100BD0001F93CF93DF93EC016DE00E94DF058C0142
:100BE000CE016AE00E94DF05080F191FC801DF91DE
:100BF000CF911F910F9108950F931F93CF93DF9380
:100C0000EC010E94CB058C01CE010E94E705080F84
:100C1000191FC801DF91CF911F910F9108958F92F5
:100C20009F92AF92BF92CF92DF92EF92FF920F937B
:100C30001F93DF93CF93CDB7DEB7A1970FB6F8948C
:100C4000DEBF0FBECDBF6C01042FE52FCB01122FED
:100C500019A2223008F41AE021E2E22EF12CEC0E67
:100C6000FD1E812E9924AA24BB2403C0022FE32F4A
:100C7000CA01602F7E2FA50194010E94EB0D129FE7
:100C8000802D1124081B0894E108F1080A3014F49F
:100C9000005D01C0095CF7010083211531054105A4
:100CA000510521F7C601B7010E94CB05A1960FB6E9
:100CB000F894DEBF0FBECDBFCF91DF911F910F9192
:100CC000FF90EF90DF90CF90BF90AF909F908F906C
:100CD00008952115310549F4DC01ED91FC91019055
:100CE000F081E02D642F099508950E940F06089564
:100CF0009A01462F50E060E070E00E946906089576
:100D0000CF92DF92EF92FF920F931F93CF93DF93D7
:100D1000EC017A018B012115310541F4E881F9815B
:100D20000190F081E02D642F09951AC02A30310519
:100D3000A9F477FF12C06DE20E94DF056C01442721
:100D40005527BA014E195F09600B710BCE012AE0DD
:100D50000E940F06C80ED91E04C02AE00E940F068A
:100D60006C01C601DF91CF911F910F91FF90EF9021
:100D7000DF90CF9008950F931F93CF93DF93EC01F3
:100D80000E9480068C01CE010E94E705080F191F02
:100D9000C801DF91CF911F910F9108959A01FB0136
:100DA000AF01662757FD6095762F0E948006089553
:100DB000209145033091460328173907B1F49091EB
:100DC000880380918703981781F0E0918803F0E011
:100DD000E95BFC4F20818091880390E001968F733E
:100DE00090708093880330E002C02FEF3FEFC9017D
:100DF000089520914503309146032817390779F467
:100E0000809187032091880390E0805C9F4F821B34
:100E1000910960E470E00E94D80D9C0102C020E0BE
:100E200030E0C90108952091450330914603281709
:100E3000390749F48FB7F89410928703909187038C
:100E4000909388038FBF0895209145033091460306
:100E50002817390781F490918803809187039817A8
:100E600051F0E0918803F0E0E95BFC4F20813327EB
:100E700027FD309502C02FEF3FEFC901089520E014
:100E800001972FEF8F3F9207D9F70895FC018091CA
:100E90004503909146038E179F0791F0838D8E7FB7
:100EA000838F8FB7F8941092870390918703909364
:100EB0008803F0934603E09345038FBF81E00895D4
:100EC00080E00895EF92FF920F931F93CF93DF93EB
:100ED000EC018B8DEE85FF859D8581FF04C08081AF
:100EE000892329F445C08081892309F041C08B8979
:100EF0009C890E943F0708E010E0EE24E394FF2461
:100F00008D899E890E943F07EE85FF8580819D85A2
:100F1000892311F0FE2803C08E2D8095F822EE0C57
:100F20000150104069F78F89988D0E943F078B8D83
:100F300081FDF094809187032091880390E00196D1
:100F40008F73907030E08217930779F0E0918703F8
:100F5000F0E0E95BFC4FF0828091870390E001961E
:100F60008F7390708093870303C08B8D81608B8F0C
:100F7000DF91CF911F910F91FF90EF900895FC01A9
:100F8000A189B2899089662329F42C91892F8095B3
:100F9000822302C08C91892B8C930895DF92EF926B
:100FA000FF920F931F93CF93DF93EC01E62E898D71
:100FB0009A8D009739F481E090E09B838A8320E04A
:100FC00030E04BC0DFB6F8948B8D61E081FF60E0CC
:100FD000CE010E94BF07898D9A8D05960E943F071A
:100FE0008B8D81FF19C008E010E0FF24F3948F2D52
:100FF0008E2119F0CE0160E002C0CE0161E00E94B6
:10100000BF07898D9A8D0E943F07FF0C0150104049
:1010100071F7CE0160E018C008E010E0FF24F394FF
:101020008F2D8E2119F0CE0161E002C0CE0160E06B
:101030000E94BF07898D9A8D0E943F07FF0C0150C7
:10104000104071F7CE0161E00E94BF07DFBE898DBD
:101050009A8D0E943F0721E030E0C901DF91CF91D6
:101060001F910F91FF90EF90DF90089580914503BD
:1010700090914603009711F00E94620708951F9215
:101080000F920FB60F9211242F933F934F935F93BC
:101090006F937F938F939F93AF93BF93EF93FF9340
:1010A0000E943608FF91EF91BF91AF919F918F9170
:1010B0007F916F915F914F913F912F910F900FBE54
:1010C0000F901F9018951F920F920FB60F92112438
:1010D0002F933F934F935F936F937F938F939F9340
:1010E000AF93BF93EF93FF930E943608FF91EF9168
:1010F000BF91AF919F918F917F916F915F914F9130
:101100003F912F910F900FBE0F901F9018951F9237
:101110000F920FB60F9211242F933F934F935F932B
:101120006F937F938F939F93AF93BF93EF93FF93AF
:101130000E943608FF91EF91BF91AF919F918F91DF
:101140007F916F915F914F913F912F910F900FBEC3
:101150000F901F9018951F93CF93DF93EC01162FDC
:10116000862F61E00E94A90C812F61E00E94CD0CC6
:10117000812F90E0FC01E65DFE4FE491E88BFC01DD
:10118000EA5EFE4FE491F0E0EE0FFF1FEE5FFE4FD0
:1011900085919491898B9A8BDF91CF911F910895BE
:1011A0001F93CF93DF93EC01162F862F60E00E94F0
:1011B000A90C8B8D81FD04C0812F61E00E94CD0CB4
:1011C0001C87812F90E0FC01E65DFE4FE491ED87E6
:1011D000FC01EA5EFE4FE491F0E0EE0FFF1FE45FDA
:1011E000FE4F859194918E879F87DF91CF911F91BC
:1011F00008951F93CF93DF93EC01162F1B821A8261
:1012000088EE93E0A0E0B0E08C839D83AE83BF8343
:1012100088E392E0998388831C8A1B8A1E8A1D8A30
:10122000188E1F8A1A8E198E8B8D2170220F8C7F3B
:10123000822B8B8FCE01642F0E94AB08CE01612FD1
:101240000E94D008DF91CF911F910895EF92FF92F5
:101250000F931F93CF93DF93EC017A018B011A8ECA
:10126000198E188E1F8A1E8A1D8A1C8A1B8A40E0CE
:1012700050E09A01220F331F240F351F220F331F16
:10128000220F331FF901E859FF4F85919591A591E0
:10129000B4918E159F05A007B107E9F4F901E4594F
:1012A000FF4F859194918B8B9C8BF901E259FF4FF5
:1012B000859194918D8B9E8BF901E059FF4F85911B
:1012C00094918F8B988F2E583F4FF901859194916F
:1012D000898F9A8F06C04F5F5F4F4C30510509F0E0
:1012E000C8CF8F89988D009709F448C09C859631A6
:1012F00008F040C020916800983020F09E3020F027
:1013000082E003C084E001C081E0822B809368000A
:101310004C85483048F04E3060F04631C8F1A0E0CE
:10132000B0E0E0E0F0E009C0ADE6B0E0EDE6F0E00E
:1013300004C0ABE6B0E0EBE6F0E05081483040F4AA
:1013400081E090E002C0880F991F4A95E2F710C033
:10135000242F30E04E3018F42850304002C02E5078
:10136000304081E090E002C0880F991F2A95E2F793
:10137000852B8C93898D9A8D0E943F07CE010E9408
:101380004607DF91CF911F910F91FF90EF90089545
:10139000ACE6B0E0ECE6F0E0D0CFFC0144854631AD
:1013A00050F5483028F04E3030F0ECE6F0E005C063
:1013B000EDE6F0E002C0EBE6F0E05081483040F4AA
:1013C00081E090E002C0880F991F4A95E2F710C0B3
:1013D000242F30E04E3018F42850304002C02E50F8
:1013E000304081E090E002C0880F991F2A95E2F713
:1013F000809585238083089528E332E0FC013183C2
:1014000020830E94CD090895CF93DF93EC018E8154
:1014100060E00E94CD0C81E090E00E9461038E812B
:1014200061E00E94CD0C81E090E00E9461038E811A
:1014300060E00E94CD0C84E690E00E946103DF91A1
:10144000CF910895AF92BF92CF92DF92EF92FF9229
:101450000F931F93CF93DF937C018C01095F1F4F84
:10146000C0E0D0E0A62EBB246801F80181918F0175
:1014700061E00E94A90CB5010C2E02C0759567951C
:101480000A94E2F76170F60180810E94CD0C2196EA
:10149000C430D10549F7C7010E94040ADF91CF91FA
:1014A0001F910F91FF90EF90DF90CF90BF90AF9082
:1014B0000895AF92BF92CF92DF92EF92FF920F9377
:1014C0001F93CF93DF937C018C01095F1F4FC0E016
:1014D000D0E0A62EBB246801F80181918F0161E064
:1014E0000E94A90CB5010C2E02C0759567950A944F
:1014F000E2F76170F60180810E94CD0C2196C83020
:10150000D10549F7C7010E94040ADF91CF911F91CD
:101510000F91FF90EF90DF90CF90BF90AF90089524
:101520001F93CF93DF93EC01162F8C81642F0E94C1
:10153000CD0C8D818F3F19F060E00E94CD0C8F851E
:1015400084FF05C0CE01612F0E94590A0FC0212FD0
:1015500030E084E0359527958A95E1F7CE01622F3A
:101560000E94220ACE01612F0E94220ADF91CF91B0
:101570001F91089541E00E94900A81E090E0089553
:1015800040E00E94900A0895FC016089262F2460A3
:10159000208B6C600E94C00A0895DF93CF93CDB773
:1015A000DEB728970FB6F894DEBF0FBECDBFFE01A1
:1015B0003196ACE4B2E028E00D9001922150E1F7C1
:1015C000FC012389421710F0422F4150E42FF0E034
:1015D000EE0FFF1FEC0FFD1F2181260F2068622FE9
:1015E0000E94C00A28960FB6F894DEBF0FBECDBF8A
:1015F000CF91DF91089561E00E94C00A80ED97E0ED
:101600000E9461030895CF93DF93EC01423018F0FC
:101610008F8588608F874B8B1C8A222329F041306D
:1016200019F48F8584608F8780E593EC0E946103B5
:101630008C8160E00E94CD0C8E8160E00E94CD0C18
:101640008D818F3F19F060E00E94CD0C6F8564FDA5
:101650001DC0CE0163E00E94220A84E991E10E944C
:101660006103CE0163E00E94220A84E991E10E94B5
:101670006103CE0163E00E94220A86E990E00E94A5
:101680006103CE0162E00E94220A16C06062CE01B0
:101690000E94C00A84E991E10E9461036F85606243
:1016A000CE010E94C00A86E990E00E9461036F8526
:1016B0006062CE010E94C00A6F856062CE010E9406
:1016C000C00A84E0888BCE010E94C40ACE010E9429
:1016D000FB0A82E0898BCE0166E00E94C00ADF919E
:1016E000CF9108956F927F928F92AF92CF92EF92A7
:1016F0000F931F93DF93CF93CDB7DEB73C01162F27
:10170000842FF301448325830683E782C086A18664
:1017100082869D8593879E8594879F8595879889E6
:10172000968761E00E94A90CF30185818F3F19F033
:1017300061E00E94A90CF301868161E00E94A90C7E
:10174000112319F0F301178603C080E1F3018787A5
:10175000C30160E141E020E00E94030BCF91DF91E3
:101760001F910F91EF90CF90AF908F907F906F90DF
:1017700008958F92AF92CF92EF920F93CF93DF9312
:10178000A62F742F522F302FAE2C8C2CEC011B82E5
:101790001A82E8E4F2E0F983E88300D000D0EDB7E4
:1017A000FEB73196CDB7DEB719821182128213824D
:1017B00061E04A2F2FEF072FE52EC32E0E94720BF8
:1017C0000F900F900F900F90DF91CF910F91EF90AE
:1017D000CF90AF908F900895EF92FF920F931F9349
:1017E000DF93CF9300D0CDB7DEB77C01162F042F47
:1017F000862F61E05A8379830E94A90C802F60E0D4
:101800000E94A90CF70110837981718302835A81A8
:1018100053830F900F90CF91DF911F910F91FF9005
:10182000EF900895CF93DF93EC01888160E00E94F0
:10183000CD0C82E090E00E946103888161E00E940B
:10184000CD0C8AE090E00E946103888160E00E94F4
:10185000CD0C8A8161E020E432E44FE050E00E9448
:10186000050D6C837D838E839F83DF91CF910895D7
:101870008F929F92AF92BF92CF92DF92EF92FF92A0
:101880000F931F93CF93DF93EC014B010E94120C37
:10189000AC80BD80CE80DF80C601B5012AE330E098
:1018A00040E050E00E940D0E8901F42EE52E2887BD
:1018B00019874A875B87C601B50124E930E040E01B
:1018C00050E00E940D0EB901CA012C873D874E875A
:1018D0005F878114910419F0B8018F2D9E2DDF913F
:1018E000CF911F910F91FF90EF90DF90CF90BF901D
:1018F000AF909F908F900895833071F0843028F4DA
:101900008130A1F0823021F514C08630B1F08730EB
:10191000D1F08430E9F404C0809180008F7703C057
:10192000809180008F7D80938000089584B58F77AB
:1019300002C084B58F7D84BD08958091B0008F77FB
:101940008093B00008958091B0008F7D8093B000A7
:10195000089590E0FC01E65DFE4F2491FC01EA5EF3
:10196000FE4FE491EE23C1F0F0E0EE0FFF1FE850D0
:10197000FF4F85919491DC01662341F49FB7F89461
:101980008C91209582238C939FBF08959FB7F894E4
:101990008C91822B8C939FBF08950F931F93DF939D
:1019A000CF930F92CDB7DEB7282F30E0F901E25C7C
:1019B000FE4F8491F901E65DFE4F14912A5E3E4F81
:1019C000F90104910023D9F0882321F069830E9452
:1019D0007C0C6981E02FF0E0EE0FFF1FEE5FFE4F01
:1019E00085919491DC019FB7F894662321F48C9142
:1019F0001095812302C08C91812B8C939FBF0F90F7
:101A0000CF91DF911F910F9108958F929F92AF9286
:101A1000BF92CF92DF92EF92FF920F931F9390E0CD
:101A2000FC01E65DFE4F94908A5E9E4FFC01E490BF
:101A3000662311F4882401C0892CCA01B90120E869
:101A40003EE340E050E00E94A50D0E94EB0D5901DD
:101A50006A0180E090E0DC016E2D70E0FB01EE0F8A
:101A6000FF1FE45FFE4F2591349109C08A159B0545
:101A7000AC05BD0509F44DC00196A11DB11DF901CC
:101A800040814921481591F30AC08A159B05AC0590
:101A9000BD0509F43EC00196A11DB11D07C0660F2A
:101AA000771F645F7E4FFB0125913491F9014081DE
:101AB0004921481551F720E030E0A901FB0165916B
:101AC00074910FC079018A01E80EF91E0A1F1B1FCD
:101AD000EA14FB040C051D05E1F02F5F3F4F4F4F4B
:101AE0005F4FFB01E081E921E81561F3CA01B9010B
:101AF00028E032E540E050E00E94A50D6058714CAE
:101B00008F4F9F4F20E83EE340E050E00E94EB0DF6
:101B100003C020E030E0A901B901CA011F910F9173
:101B2000FF90EF90DF90CF90BF90AF909F908F90FD
:101B30000895F8940C942E0EFB01DC018D91019018
:101B400080190110D9F3990B0895629FD001739FFA
:101B5000F001829FE00DF11D649FE00DF11D929F49
:101B6000F00D839FF00D749FF00D659FF00D992788
:101B7000729FB00DE11DF91F639FB00DE11DF91FAC
:101B8000BD01CF0111240895AA1BBB1B51E107C061
:101B9000AA1FBB1FA617B70710F0A61BB70B881FFD
:101BA000991F5A95A9F780959095BC01CD0108958C
:101BB00097FB092E07260AD077FD04D0E5DF06D073
:101BC00000201AF4709561957F4F0895F6F790956F
:101BD00081959F4F0895A1E21A2EAA1BBB1BFD0100
:101BE0000DC0AA1FBB1FEE1FFF1FA217B307E407FC
:101BF000F50720F0A21BB30BE40BF50B661F771F54
:101C0000881F991F1A9469F7609570958095909533
:101C10009B01AC01BD01CF01089597FB092E05265C
:101C20000ED057FD04D0D7DF0AD0001C38F45095F1
:101C30004095309521953F4F4F4F5F4F0895F6F7F0
:101C400090958095709561957F4F8F4F9F4F089528
:101C5000EE0FFF1F0590F491E02D099411E0C6E509
:101C6000D1E004C0FE010E942A0E2296C835D10799
:061C7000C9F7F894FFCF54
:101C760052464944207265616465722073746172CC
:101C860074696E6720757000202D2D207061737346
:101C960065642E00202D2D206572726F722E0063F2
:101CA6006D0044697374616E6365203A0020636D4C
:101CB6000054616720726561643A20003000436811
:101CC60065636B73756D3A2000417574686F726950
:101CD6007A656420746167204944200057656C6307
:101CE6006F6D6520003A20756E6C6F636B696E6769
:101CF60020666F722000646F6F7220756E6C6F6362
:101D06006B656400546167206E6F7420617574683A
:101D16006F72697A656400546869732063617264DE
:101D2600206973206E6F742000616E206175746F78
:101D36007269736564206F6E6500303130304331EF
:101D4600413642330030313030433231364235008D
:101D56003031303043323031453500303130304368
:101D66003230303836005573657220310055736550
:101D760072203200557365722033005573657220E8
:101D86003400CA01D501E001EB01F601FD010402B0
:101D96000B020400000000000B04A105A603D503F6
:101DA600B903F70300000000CE07A105F906D8061F
:101DB6002407130700000000BA0AA105000040002E
:041DC60014005400B1
:00000001FF
