:100000000C94AC000C94D4000C94D4000C94D8083C
:100010000C94FC080C9420090C94D4000C94D4008B
:100020000C94D4000C94D4000C94D4000C94D40000
:100030000C94D4000C94D4000C94D4000C94D400F0
:100040000C9478020C94D4000C9494040C94C50481
:100050000C94D4000C94D4000C94D4000C94D400D0
:100060000C94D4000C94D40000000000240027005D
:100070002A0000000000250028002B0000000000DE
:1000800023002600290004040404040404040202DA
:100090000202020203030303030301020408102007
:1000A0004080010204081020010204081020000012
:1000B0000007000201000003040600000000000029
:1000C000000000C201000100110011000C0000E15D
:1000D00000000A00250025002100009600001900FC
:1000E000390039003600127A00001F004600460031
:1000F00044008070000022004D004D004A00004B7B
:1001000000003600750075007200403800004A009B
:100110009C009C009900802500007200EC00EC001F
:10012000E900C0120000E900DA01DA01D701600934
:100130000000D701B603B603B303B0040000B30355
:100140006E076E076B072C010000DC0EC11DC11D80
:10015000BE1D6E028A05730211241FBECFEFD8E0C8
:10016000DEBFCDBF11E0A0E0B1E0E4E6FEE102C0F9
:1001700005900D92A03FB107D9F713E0A0EFB1E0D1
:1001800001C01D92A037B107E1F711E0C6E5D1E04B
:1001900004C02297FE010E94210FC235D107C9F782
:1001A0000E94C7050C94830E0C940000CF92EF922E
:1001B0000F93CF93DF9381309105C1F580EF91E0EC
:1001C0006CE04BE025E004E053E0E52E32E0C32E86
:1001D0000E94520C8DE192E060E071E00E94FC060A
:1001E00084E292E06DE071E00E94FC068BE292E016
:1001F0006AE171E00E94FC0682E392E067E271E04E
:100200000E94FC06C9E3D2E0CE0164E371E00E94E3
:10021000FC06279682E0CC35D807B1F78CE592E052
:1002200066E047E020E00E94920914C0009791F434
:100230008CE592E00E94950ACCE5D2E02797CE01AA
:100240000E948A0682E0C432D807C1F78DE192E0AD
:100250000E948A06DF91CF910F91EF90CF90089581
:10026000CF93DF93C9E0D3E0CE0140E855E260E0F0
:1002700070E00E940C05CE0165E371E00E947706F4
:100280008CE592E040E855E260E070E00E94BF0932
:10029000CE0162E471E00E94770686E060E00E9491
:1002A0007F0387E061E00E947F0380EF91E060E1DF
:1002B00042E020E00E949C0BDF91CF910895EF92E5
:1002C000FF920F931F93DF93CF93CDB7DEB727979E
:1002D0000FB6F894DEBF0FBECDBF80EF91E060E0B7
:1002E00040E00E94660B80EF91E06DE471E00E94B7
:1002F000440680EF91E060E041E00E94660B80EFF1
:1003000091E06DE571E00E94440610921A0210928D
:10031000190210921C0210921B0200E010E026C08D
:100320008CE592E00E94710790931A028093190263
:100330008330910511F182309105C1F020911B02AB
:1003400030911C02F901EB5FFD4F80832F5F3F4F1F
:1003500030931C0220931B022B5F3D4FF90110824A
:10036000FFEF8F3F9F0711F00F5F1F4F80911B0220
:1003700090911C028C3091059CF2CE01019665E0B3
:1003800072E00E94FC0668EB7BE080E090E00E9457
:10039000E60280911B0290911C028C30910514F1B1
:1003A0000C301105F9F489E093E06CE671E00E94ED
:1003B000440605E012E004C089E093E00E9447068D
:1003C000F80161918F016623B9F789E093E063E753
:1003D00071E00E94770689E093E0BE016F5F7F4F76
:1003E0000E9464068E010F5F1F4FC8016DE172E02D
:1003F0000E944D07882309F189E093E065E771E0E9
:100400000E94770680EF91E00E94940B80EF91E0CC
:100410006DE971E00E94440680EF91E060E041E008
:100420000E94660B80EF91E0B8010E94110668EE11
:1004300073E080E090E00E94E60200E010E07E01C0
:100440000894E11CF11CB801E3E0660F771FEA9500
:10045000E1F7601B710B6C5D7D4FC7010E944D077A
:100460008823E1F080EF91E00E94940B80EF91E00F
:100470006EEA71E00E94440680EF91E060E041E0A6
:100480000E94660B80EF91E0B7010E94110668EEB2
:1004900073E080E090E00E94E60205C00F5F1F4F0E
:1004A0000830110581F664E670E080E090E00E947B
:1004B000E60280EF91E00E94940BCE0101960E942B
:1004C0008A0627960FB6F894DEBF0FBECDBFCF9138
:1004D000DF911F910F91FF90EF90089581E090E0E0
:1004E0000E94D600089580E090E00E94D600089512
:1004F0001F920F920FB60F9211242F933F938F9359
:100500009F93AF93BF9380917C0290917D02A091C5
:100510007E02B0917F02309180020196A11DB11D33
:10052000232F2D5F2D3720F02D570196A11DB11DD2
:100530002093800280937C0290937D02A0937E02A0
:10054000B0937F028091780290917902A0917A0213
:10055000B0917B020196A11DB11D8093780290930A
:100560007902A0937A02B0937B02BF91AF919F91E1
:100570008F913F912F910F900FBE0F901F90189564
:100580009FB7F894209178023091790240917A02D5
:1005900050917B0286B5A89B06C08F3F21F02F5F4C
:1005A0003F4F4F4F5F4F9FBF542F432F322F222774
:1005B000280F311D411D511D82E0220F331F441FA2
:1005C000551F8A95D1F7B901CA010895EF92FF929C
:1005D0000F931F93CF93DF937B018C010E94C00286
:1005E000EB010FC00E94C0026C1B7D0B83E0683ED4
:1005F000780738F00894E108F10801091109C85199
:10060000DC4FE114F1040105110561F7DF91CF9191
:100610001F910F91FF90EF900895019739F0880F87
:10062000991F880F991F02970197F1F70895789401
:1006300084B5826084BD84B5816084BD85B58260E7
:1006400085BD85B5816085BDEEE6F0E08081816085
:100650008083E1E8F0E01082808182608083808185
:1006600081608083E0E8F0E0808181608083E1EB5D
:10067000F0E0808184608083E0EBF0E08081816045
:100680008083EAE7F0E080818460808380818260FB
:1006900080838081816080838081806880831092E4
:1006A000C1000895833071F0843028F48130A1F0C6
:1006B000823021F514C08630B1F08730D1F084301B
:1006C000E9F404C0809180008F7703C0809180009E
:1006D0008F7D80938000089584B58F7702C084B5A4
:1006E0008F7D84BD08958091B0008F778093B00096
:1006F00008958091B0008F7D8093B000089590E0C0
:10070000FC01E656FF4F2491FC01EA57FF4FE491AC
:10071000EE23C1F0F0E0EE0FFF1FE859FF4F859187
:100720009491DC01662341F49FB7F8948C91209555
:1007300082238C939FBF08959FB7F8948C91822B4E
:100740008C939FBF08950F931F93DF93CF930F92C6
:10075000CDB7DEB7282F30E0F901E255FF4F849185
:10076000F901E656FF4F14912A573F4FF9010491C2
:100770000023D9F0882321F069830E945203698104
:10078000E02FF0E0EE0FFF1FEE58FF4F85919491A0
:10079000DC019FB7F894662321F48C911095812396
:1007A00002C08C91812B8C939FBF0F90CF91DF91D2
:1007B0001F910F910895FC0184859585FC01E05CF3
:1007C000FF4F208131818E5B9F4FFC0180819181A1
:1007D000281B390B2F733070C9010895FC018485E3
:1007E0009585FC01E05CFF4F40815181FC01EE5B8F
:1007F000FF4F208131814217530741F00190F08172
:10080000E02DE80FF91F208130E002C02FEF3FEF0D
:10081000C9010895FC0184859585FC01E05CFF4FCA
:1008200040815181FC01EE5BFF4F208131814217F5
:10083000530771F0A081B181A80FB91F2C9180815D
:10084000918101968F7390709183808330E002C014
:100850002FEF3FEFC9010895DC011E968D919C9109
:100860001F97FC01E05CFF4F8E5B9F4F40815181E1
:10087000DC012D913C91119742175307B9F7089568
:100880001F93FC01162F26853785D901A05CBF4F29
:100890008D919C91019660E470E00E94B30ED901A5
:1008A000AE5BBF4F4D915C91119784179507D1F3C3
:1008B000D901A05CBF4F0D90BC91A02DA20FB31F1A
:1008C0001C93A685B785A05CBF4F11969C938E9311
:1008D000A689B7892C9181E090E0058C02C0880F31
:1008E000991F0A94E2F7282B2C9381E090E01F9146
:1008F0000895FB01E05CFF4F208131812F5F3F4F66
:100900002F733070DB01AE5BBF4F4D915C9111973F
:100910002417350739F0A081B181A60FB71F8C933A
:1009200031832083089508951F920F920FB60F927E
:1009300011242F933F934F935F936F937F938F93E4
:100940009F93AF93BF93EF93FF938091C60061E8AD
:1009500072E00E947904FF91EF91BF91AF919F9156
:100960008F917F916F915F914F913F912F910F9058
:100970000FBE0F901F90189589E093E00E94DB0353
:10098000009711F00E94930408951F920F920FB6E2
:100990000F9211242F933F935F936F937F938F93C5
:1009A0009F93AF93BF93EF93FF93209105033091F3
:1009B000060380910703909108032817390731F443
:1009C0008091C1008F7D8093C10016C0E091070324
:1009D000F0910803EB53FD4F208180910703909124
:1009E0000803019660E470E00E94B30E9093080340
:1009F000809307032093C600FF91EF91BF91AF91C1
:100A00009F918F917F916F915F913F912F910F9067
:100A10000FBE0F901F901895DF92EF92FF920F93E9
:100A20001F93CF93DF93EC017A018B01DD24D394E4
:100A3000403081EE580780E0680780E0780749F48D
:100A4000DD24EC89FD89108260E874E88EE190E095
:100A50000FC0EC89FD8981E090E00E8C02C0880F08
:100A6000991F0A94E2F7808360E079E08DE390E0DB
:100A7000A80197010E94C60E2150304040405040CE
:100A8000569547953795279580E12030380710F027
:100A9000DD20B1F6E889F9893083EA89FB89208372
:100AA000EE89FF89408181E090E09C010A8C02C0C0
:100AB000220F331F0A94E2F7422B4083EE89FF890D
:100AC00040819C010B8C02C0220F331F0A94E2F775
:100AD000422B4083EE89FF8940819C010C8C02C02F
:100AE000220F331F0A94E2F7422B4083EE89FF89DD
:100AF00020810D8C02C0880F991F0A94E2F780951F
:100B000082238083DF91CF911F910F91FF90EF900F
:100B1000DF90089510920C0310920B0388EE93E07F
:100B2000A0E0B0E080930D0390930E03A0930F0319
:100B3000B0931003EBE0F3E083EC91E092938293A7
:100B400081E892E09587848785EC92E09787868795
:100B500085EC90E0918B808B84EC90E0938B828B82
:100B600080EC90E0958B848B81EC90E0978B868B6A
:100B700086EC90E0918F808F84E0828F83E0838F7A
:100B800087E0848F85E0858F81E0868F0895CF93FD
:100B9000DF930E9417030E943001CCEBD4E00E9447
:100BA0005F012097E1F30E94BC04F9CFCF92DF925E
:100BB000EF92FF920F931F93CF93DF936C017B0112
:100BC0008A01C0E0D0E00FC0D7016D917D01D60150
:100BD000ED91FC910190F081E02DC6010995C80FBF
:100BE000D91F015010400115110571F7CE01DF9199
:100BF000CF911F910F91FF90EF90DF90CF900895CC
:100C0000DB010D900020E9F7AD0141505040461B3B
:100C1000570BDC01ED91FC910280F381E02D0995E9
:100C20000895AF92BF92CF92DF92EF92FF920F930F
:100C30001F93CF93DF937C016B01C0E0D0E000E015
:100C400010E010C0D701ED91FC91A080B180C601E9
:100C5000BE010E945E07682FC701F5010995080FC4
:100C6000191F2196F60184819581C817D90750F381
:100C7000C801DF91CF911F910F91FF90EF90DF900E
:100C8000CF90BF90AF9008950E9400060895DC01B8
:100C9000ED91FC910190F081E02D099508950F935D
:100CA0001F93CF93DF93EC016DE00E9447068C0108
:100CB000CE016AE00E944706080F191FC801DF91A4
:100CC000CF911F910F9108950F931F93CF93DF93AF
:100CD000EC010E9411068C01CE010E944F06080F04
:100CE000191FC801DF91CF911F910F9108950F93A4
:100CF0001F93CF93DF93EC010E9400068C01CE017D
:100D00000E944F06080F191FC801DF91CF911F9154
:100D10000F910895FC01808191810E941F0D08951B
:100D2000CF93DF93EC0188819981009711F00E94A5
:100D30001F0D198218821D821C821B821A82DF916C
:100D4000CF9108950F931F93CF93DF93EC018B0105
:100D50006F5F7F4F888199810E94B80D009731F0B5
:100D6000998388831B830A8381E001C080E0DF913F
:100D7000CF911F910F910895CF93DF93EC0188815C
:100D80009981009729F08A819B818617970778F4CB
:100D9000CE010E94A206882341F08C819D8100979C
:100DA00031F4E881F981108202C080E001C081E065
:100DB000DF91CF910895EF92FF920F931F93CF93FE
:100DC000DF93EC017B018A01BA010E94BC068823F3
:100DD00021F4CE010E94900607C01D830C838881F8
:100DE0009981B7010E94980ECE01DF91CF911F919A
:100DF0000F91FF90EF900895CF93DF93FC01118244
:100E00001082138212821582148216826115710576
:100E100059F0EB0109900020E9F7AE014150504034
:100E2000461B570B0E94DB06DF91CF910895CF93AD
:100E3000DF93FC01DB0180819181009731F06D919E
:100E40007C91119761157105E9F4CD91DC911197B1
:100E5000209769F014962D913C9115972115310535
:100E600031F0288130E0309521953F4F12C0009736
:100E700071F0248135812115310549F0FC01208173
:100E800030E007C00E948F0E282F392F02C020E0CB
:100E900030E0C901DF91CF910895FC014481558173
:100EA000FB01248135814217530729F40E9417075B
:100EB00021E0009709F020E0822F0895FC01848151
:100EC00095816817790748F480819181009739F0FE
:100ED000680F791FFB018081089580E0089580E00C
:100EE0000895209128033091290328173907B1F478
:100EF00090916B0380916A03981781F0E0916B03E6
:100F0000F0E0E65DFC4F208180916B0390E001965C
:100F10008F73907080936B0330E002C02FEF3FEF30
:100F2000C901089520912803309129032817390712
:100F300079F480916A0320916B0390E0805C9F4F6D
:100F4000821B910960E470E00E94B30E9C0102C014
:100F500020E030E0C9010895209128033091290351
:100F60002817390749F48FB7F89410926A039091C3
:100F70006A0390936B038FBF0895209128033091EB
:100F800029032817390781F490916B0380916A0334
:100F9000981751F0E0916B03F0E0E65DFC4F208183
:100FA000332727FD309502C02FEF3FEFC901089589
:100FB00020E001972FEF8F3F9207D9F70895FC01AA
:100FC00080912803909129038E179F0791F0838DBC
:100FD0008E7F838F8FB7F89410926A0390916A0383
:100FE00090936B03F0932903E09328038FBF81E074
:100FF000089580E00895EF92FF920F931F93CF938F
:10100000DF93EC018B8DEE85FF859D8581FF04C00C
:101010008081892329F445C08081892309F041C05A
:101020008B899C890E94D80708E010E0EE24E394A5
:10103000FF248D899E890E94D807EE85FF858081D7
:101040009D85892311F0FE2803C08E2D8095F822FE
:10105000EE0C0150104069F78F89988D0E94D807D7
:101060008B8D81FDF09480916A0320916B0390E059
:1010700001968F73907030E08217930779F0E091BA
:101080006A03F0E0E65DFC4FF08280916A0390E035
:1010900001968F73907080936A0303C08B8D81607B
:1010A0008B8FDF91CF911F910F91FF90EF9008955B
:1010B000FC01A189B2899089662329F42C91892F9A
:1010C0008095822302C08C91892B8C930895DF92A6
:1010D000EF92FF920F931F93CF93DF93EC01E62ED5
:1010E000898D9A8D009739F481E090E09B838A8303
:1010F00020E030E04BC0DFB6F8948B8D61E081FFDB
:1011000060E0CE010E945808898D9A8D05960E9454
:10111000D8078B8D81FF19C008E010E0FF24F394FD
:101120008F2D8E2119F0CE0160E002C0CE0161E06A
:101130000E945808898D9A8D0E94D807FF0C015093
:10114000104071F7CE0160E018C008E010E0FF2405
:10115000F3948F2D8E2119F0CE0161E002C0CE01F3
:1011600060E00E945808898D9A8D0E94D807FF0C74
:101170000150104071F7CE0161E00E945808DFBEB7
:10118000898D9A8D0E94D80721E030E0C901DF9156
:10119000CF911F910F91FF90EF90DF900895809174
:1011A000280390912903009711F00E94FB070895EE
:1011B0001F920F920FB60F9211242F933F934F93CC
:1011C0005F936F937F938F939F93AF93BF93EF93AF
:1011D000FF930E94CF08FF91EF91BF91AF919F9134
:1011E0008F917F916F915F914F913F912F910F90D0
:1011F0000FBE0F901F9018951F920F920FB60F926F
:1012000011242F933F934F935F936F937F938F930B
:101210009F93AF93BF93EF93FF930E94CF08FF91EB
:10122000EF91BF91AF919F918F917F916F915F915E
:101230004F913F912F910F900FBE0F901F901895D7
:101240001F920F920FB60F9211242F933F934F933B
:101250005F936F937F938F939F93AF93BF93EF931E
:10126000FF930E94CF08FF91EF91BF91AF919F91A3
:101270008F917F916F915F914F913F912F910F903F
:101280000FBE0F901F9018951F93CF93DF93EC0123
:10129000162F862F61E00E947F03812F61E00E945C
:1012A000A303812F90E0FC01E656FF4FE491E88B09
:1012B000FC01EA57FF4FE491F0E0EE0FFF1FEE58FC
:1012C000FF4F85919491898B9A8BDF91CF911F91DC
:1012D00008951F93CF93DF93EC01162F862F60E0C4
:1012E0000E947F038B8D81FD04C0812F61E00E94ED
:1012F000A3031C87812F90E0FC01E656FF4FE49189
:10130000ED87FC01EA57FF4FE491F0E0EE0FFF1F7D
:10131000E458FF4F859194918E879F87DF91CF91FD
:101320001F9108951F93CF93DF93EC01162F1B821B
:101330001A8288EE93E0A0E0B0E08C839D83AE83B8
:10134000BF8383ED91E0998388831C8A1B8A1E8A60
:101350001D8A188E1F8A1A8E198E8B8D2170220F6E
:101360008C7F822B8B8FCE01642F0E944409CE018B
:10137000612F0E946909DF91CF911F910895EF922B
:10138000FF920F931F93CF93DF93EC017A018B01B0
:101390001A8E198E188E1F8A1E8A1D8A1C8A1B8A15
:1013A00040E050E09A01220F331F240F351F220F17
:1013B000331F220F331FF901EE53FF4F8591959193
:1013C000A591B4918E159F05A007B107E9F4F90125
:1013D000EA53FF4F859194918B8B9C8BF901E853D5
:1013E000FF4F859194918D8B9E8BF901E653FF4FB2
:1013F000859194918F8B988F24533F4FF90185915C
:101400009491898F9A8F06C04F5F5F4F4C30510582
:1014100009F0C8CF8F89988D009709F448C09C8542
:10142000963108F040C020916800983020F09E303E
:1014300020F082E003C084E001C081E0822B809331
:1014400068004C85483048F04E3060F04631C8F1B5
:10145000A0E0B0E0E0E0F0E009C0ADE6B0E0EDE62D
:10146000F0E004C0ABE6B0E0EBE6F0E050814830DD
:1014700040F481E090E002C0880F991F4A95E2F79E
:1014800010C0242F30E04E3018F42850304002C0F5
:101490002E50304081E090E002C0880F991F2A95BD
:1014A000E2F7852B8C93898D9A8D0E94D807CE0107
:1014B0000E94DF07DF91CF911F910F91FF90EF9076
:1014C0000895ACE6B0E0ECE6F0E0D0CFFC01448556
:1014D000463150F5483028F04E3030F0ECE6F0E080
:1014E00005C0EDE6F0E002C0EBE6F0E050814830E8
:1014F00040F481E090E002C0880F991F4A95E2F71E
:1015000010C0242F30E04E3018F42850304002C074
:101510002E50304081E090E002C0880F991F2A953C
:10152000E2F7809585238083089523ED31E0FC0167
:10153000318320830E94660A0895CF93DF93EC01E4
:101540008E8160E00E94A30381E090E00E940D0381
:101550008E8161E00E94A30381E090E00E940D0370
:101560008E8160E00E94A30384E690E00E940D0358
:10157000DF91CF910895AF92BF92CF92DF92EF9219
:10158000FF920F931F93CF93DF937C018C01095F30
:101590001F4FC0E0D0E0A62EBB246801F801819166
:1015A0008F0161E00E947F03B5010C2E02C075958A
:1015B00067950A94E2F76170F60180810E94A303A7
:1015C0002196C430D10549F7C7010E949D0ADF91D9
:1015D000CF911F910F91FF90EF90DF90CF90BF9030
:1015E000AF900895AF92BF92CF92DF92EF92FF92A9
:1015F0000F931F93CF93DF937C018C01095F1F4FE3
:10160000C0E0D0E0A62EBB246801F80181918F01D3
:1016100061E00E947F03B5010C2E02C075956795AD
:101620000A94E2F76170F60180810E94A30321967B
:10163000C830D10549F7C7010E949D0ADF91CF91BB
:101640001F910F91FF90EF90DF90CF90BF90AF90E0
:1016500008951F93CF93DF93EC01162F8C81642F95
:101660000E94A3038D818F3F19F060E00E94A303C5
:101670008F8584FF05C0CE01612F0E94F20A0FC042
:10168000212F30E084E0359527958A95E1F7CE014A
:10169000622F0E94BB0ACE01612F0E94BB0ADF911C
:1016A000CF911F91089541E00E94290B81E090E0C5
:1016B000089540E00E94290B0895FC016089262FBF
:1016C0002460208B6C600E94590B0895DF93CF93A8
:1016D000CDB7DEB728970FB6F894DEBF0FBECDBFEB
:1016E000FE013196A7EEB1E028E00D900192215065
:1016F000E1F7FC012389421710F0422F4150E42FFB
:10170000F0E0EE0FFF1FEC0FFD1F2181260F206878
:10171000622F0E94590B28960FB6F894DEBF0FBEB9
:10172000CDBFCF91DF91089561E00E94590B80ED0C
:1017300097E00E940D030895CF93DF93EC014230B0
:1017400018F08F8588608F874B8B1C8A222329F0A5
:10175000413019F48F8584608F8780E593EC0E9477
:101760000D038C8160E00E94A3038E8160E00E94E3
:10177000A3038D818F3F19F060E00E94A3036F8562
:1017800064FD1DC0CE0163E00E94BB0A84E991E1C3
:101790000E940D03CE0163E00E94BB0A84E991E13F
:1017A0000E940D03CE0163E00E94BB0A86E990E02F
:1017B0000E940D03CE0162E00E94BB0A16C0606267
:1017C000CE010E94590B84E991E10E940D036F85BF
:1017D0006062CE010E94590B86E990E00E940D03E1
:1017E0006F856062CE010E94590B6F856062CE01E9
:1017F0000E94590B84E0888BCE010E945D0BCE01C4
:101800000E94940B82E0898BCE0166E00E94590B06
:10181000DF91CF9108956F927F928F92AF92CF9286
:10182000EF920F931F93DF93CF93CDB7DEB73C01B9
:10183000162F842FF301448325830683E782C08615
:10184000A18682869D8593879E8594879F859587AF
:101850009889968761E00E947F03F30185818F3F1D
:1018600019F061E00E947F03F301868161E00E942C
:101870007F03112319F0F301178603C080E1F30100
:101880008787C30160E141E020E00E949C0BCF917B
:10189000DF911F910F91EF90CF90AF908F907F903D
:1018A0006F9008958F92AF92CF92EF920F93CF9354
:1018B000DF93A62F742F522F302FAE2C8C2CEC01DF
:1018C0001B821A82E3EEF1E0F983E88300D000D0B6
:1018D000EDB7FEB73196CDB7DEB71982118212820D
:1018E000138261E04A2F2FEF072FE52EC32E0E94AF
:1018F0000B0C0F900F900F900F90DF91CF910F91E5
:10190000EF90CF90AF908F900895CF93DF93823078
:10191000910510F482E090E0E0916E03F0916F0386
:1019200040E050E020E030E026C06081718168171F
:101930007907E0F06817790781F482819381211596
:10194000310531F0D90113969C938E9312972BC0D9
:1019500090936F0380936E0326C04115510519F0D3
:101960006417750718F4AB01E901DF019F0172816B
:101970006381E72FF62F3097C1F64115510501F12C
:10198000481B590B4430510580F412968D919C915F
:101990001397209719F09B838A8304C090936F0359
:1019A00080936E03FD01329646C0FD01E40FF51FE2
:1019B000819391934250504011965C934E933BC05B
:1019C00020916C0330916D032115310541F4209174
:1019D000BB013091BC0130936D0320936C032091C7
:1019E000BD013091BE012115310541F42DB73EB73F
:1019F0004091B9015091BA01241B350BE0916C0361
:101A0000F0916D03E217F307A0F42E1B3F0B28178C
:101A1000390778F0AC014E5F5F4F2417350748F067
:101A20004E0F5F1F50936D0340936C03819391930E
:101A300002C0E0E0F0E0CF01DF91CF910895CF93B5
:101A4000DF93009709F491C0FC0132971382128250
:101A500060916E0370916F036115710581F42081AF
:101A60003181280F391F80916C0390916D0382178B
:101A7000930799F5F0936D03E0936C0376C0DB0157
:101A800080E090E002C0CD01D901AE17BF0748F455
:101A900012962D913C91139721153105A1F7CD0197
:101AA00021C0B383A283EF01499159919E01240F74
:101AB000351FA217B30779F42D913C911197240F8C
:101AC000351F2E5F3F4F3183208312962D913C911D
:101AD000139733832283009729F4F0936F03E093E5
:101AE0006E0343C0DC011396FC93EE9312974D9165
:101AF0005D91A40FB51FEA17FB0769F420813181BE
:101B0000240F351F2E5F3F4FEC013983288322813C
:101B100033813B832A83E0E0F0E002C0FB01BC019B
:101B2000DB0112968D919C9113970097B9F79B0159
:101B30002E5F3F4F8D919C911197820F931F409183
:101B40006C0350916D034817590779F4309729F4C5
:101B500010926F0310926E0302C013821282225001
:101B6000304030936D0320936C03DF91CF91089543
:101B7000A0E0B0E0EEEBFDE00C94EE0E8C01CB01AA
:101B80000115110529F40E94850C082F192FB5C0E5
:101B9000D80112979801260F371F2A173B0708F420
:101BA000AAC0ED90FC901197E616F706D0F045E03C
:101BB000E416F10408F4A1C0A701445050404617B0
:101BC000570708F49AC0A70142505040461B570BD4
:101BD000F901419351936D937C93CF010E941F0DA6
:101BE0008CC05B01AE18BF0848018E0C9F1CE091B1
:101BF0006E03F0916F03CC24DD24C0E0D0E041C03F
:101C0000E815F90599F560817181AB014E5F5F4F71
:101C10004A155B0558F1AB014A195B09CC24DD2458
:101C20006894C1F8C40ED51E8280A380E5E0CE166C
:101C3000D10448F0F9018282A38251834083119636
:101C40009C938E9309C0C7010296860F971F119629
:101C50009C938E93E82DFA2D209719F0FB83EA834D
:101C60004CC0F0936F03E0936E0347C040815181F5
:101C7000C416D50608F46A01EF0152814381E52FAD
:101C8000F42F309709F0BCCF40916C0350916D0355
:101C900048155905E9F4C816D906D0F44091BD019C
:101CA0005091BE014115510541F44DB75EB76091A9
:101CB000B9017091BA01461B570B24173507D8F4A8
:101CC00030936D0320936C0311969C938E9315C0F3
:101CD0000E94850CC82EE6016E01D92EE6012097E0
:101CE00051F08C2DB801A7010E94860EC8010E94F8
:101CF0001F0D860102C000E010E0C801CDB7DEB7BD
:101D0000ECE00C940A0FF8940C94250FFB01DC0115
:101D100002C001900D9241505040D8F70895FB0148
:101D2000DC018D91019080190110D9F3990B089570
:101D3000FB01DC0101900D920020E1F70895AA1B40
:101D4000BB1B51E107C0AA1FBB1FA617B70710F0A6
:101D5000A61BB70B881F991F5A95A9F780959095D8
:101D6000BC01CD01089597FB092E07260AD077FD07
:101D700004D0E5DF06D000201AF4709561957F4FFE
:101D80000895F6F7909581959F4F0895A1E21A2E38
:101D9000AA1BBB1BFD010DC0AA1FBB1FEE1FFF1F0F
:101DA000A217B307E407F50720F0A21BB30BE40B5F
:101DB000F50B661F771F881F991F1A9469F76095A6
:101DC0007095809590959B01AC01BD01CF01089560
:101DD0002F923F924F925F926F927F928F929F923B
:101DE000AF92BF92CF92DF92EF92FF920F931F9329
:101DF000CF93DF93CDB7DEB7CA1BDB0B0FB6F894DA
:101E0000DEBF0FBECDBF09942A88398848885F8419
:101E10006E847D848C849B84AA84B984C884DF808A
:101E2000EE80FD800C811B81AA81B981CE0FD11D6E
:101E30000FB6F894DEBF0FBECDBFED010895EE0FD3
:101E4000FF1F0590F491E02D099411E0C6E5D1E063
:101E500004C0FE010E94210F2296C835D107C9F7A0
:041E6000F894FFCF24
:101E64003031303043314136423340350030313047
:101E74003043323136423530300030313030433245
:101E84003031453536370030313030433230303838
:101E9400364B35000053657269616C20526561648C
:101EA4007900524649442052656164790049276D9E
:101EB4002077616974696E6720666F7200612063C0
:101EC40061726420746F2072656164005461673AC2
:101ED400205B005D006F6B206D617374657220542C
:101EE4006167207265636F6E6E75202D2D2D2D2D0B
:101EF4002D2D2D2D2D2D2D2D21212121004D415311
:101F04005445522043415244202121212100636140
:101F14007264204944206F6B0020007003000000AD
:101F24000000004004D605DB030A04EE032C040081
:101F34000000006708D60592077107BD07AC0700CB
:101F4400000000530BD605000040001400540000AC
:00000001FF
